:100000000C9434000C9451000C9451000C94510049
:100010000C9451000C9451000C9451000C9451001C
:100020000C9451000C9451000C9451000C948E01CE
:100030000C9451000C9451000C947D010C945100CF
:100040000C9451000C9451000C9479000C945100C4
:100050000C9451000C94D1000C9451000C9451005C
:100060000C9451000C94510011241FBECFEFD8E026
:10007000DEBFCDBF11E0A0E0B1E0E6EEF6E002C0E9
:1000800005900D92A231B107D9F721E0A2E1B1E0CC
:1000900001C01D92AF3EB207E1F70E9430030C94FD
:1000A00071030C94000087E08093C4001092C50097
:1000B000E0ECF0E0808182608083E1ECF0E0808120
:1000C0008861808380818068808308959091C000DA
:1000D00095FFFCCF8093C6000895CF93DF93EC018A
:1000E0008991882319F00E946600FACFDF91CF91A1
:1000F00008951F920F920FB60F9211242F933F93E2
:100100004F935F936F937F938F939F93AF93BF931F
:10011000EF93FF938091C600E0915F01F091600141
:100120000995FF91EF91BF91AF919F918F917F9131
:100130006F915F914F913F912F910F900FBE0F9054
:100140001F901895259A08952D9A8FE891E00197B0
:10015000F1F700C000002D9808950895ECE7F0E055
:10016000808180648083808181608083EAE7F0E021
:1001700080818660808380818062808380818860C6
:1001800080830895EAE7F0E0808180688083808141
:10019000806480830895EAE7F0E080818F77808330
:1001A00008951F920F920FB60F9211240F900FBE59
:1001B0000F901F90189584B5826084BD85B58160CD
:1001C00085BD85B5846085BDEEE6F0E08081826006
:1001D00080838BE987BD0895E1E8F0E08081886045
:1001E0008083808181608083808184608083EFE66A
:1001F000F0E080818260808388E09DE390938900B5
:100200008093880008952091240181E090E02111DD
:1002100002C080E090E008952091220130912301F6
:1002200081E090E0232B11F480E090E0089580912C
:100230002401882359F18091240181508093240165
:1002400080911E0190911F01A0912001B091210188
:100250000196A11DB11D80931E0190931F01A093D3
:100260002001B09321018091160190911701A09176
:100270001801B09119010196A11DB11D80931601BD
:1002800090931701A0931801B093190108958091DC
:10029000220190912301892B79F180912201909183
:1002A00023010197909323018093220180911A01E9
:1002B00090911B01A0911C01B0911D010196A11DFF
:1002C000B11D80931A0190931B01A0931C01B09360
:1002D0001D018091120190911301A0911401B09120
:1002E00015010196A11DB11D809312019093130178
:1002F000A0931401B093150108951F920F920FB6A9
:100300000F9211248F93809124018F5F8093240199
:100310008F910F900FBE0F901F9018951F920F9204
:100320000FB60F9211248F939F9380912201909189
:100330002301019690932301809322019F918F9135
:100340000F900FBE0F901F90189581E090E0909352
:10035000620180936101909328018093270190931B
:1003600064018093630108950C94A400089586EBC2
:1003700091E00C94530082E091E00C946D00E8E66B
:10038000F1E080E026E030E041E050E014821582A8
:1003900016821782338322831086853018F41182E7
:1003A000108202C0518340838F5F39968F3071F77E
:1003B0000895CF92DF92EF92FF920F931F93E8E69A
:1003C000F1E0DF0100E010E0ED90FC9011978E1558
:1003D0009F05A1F41296ED90FC9013976E157F0582
:1003E00069F489E0809FF001819FF00D1124E859A4
:1003F000FE4F248335834683578323C00F5F1F4FEF
:1004000019960F30110501F700E010E0A081B181CD
:100410008A179B07C1F4C480D580E680F780CD2879
:10042000CE28CF2881F489E0809FF001819FF00DD4
:100430001124E859FE4F2483358346835783738301
:100440006283108606C00F5F1F4F39960F3011056B
:10045000E9F61F910F91FF90EF90DF90CF900895F4
:1004600008950F931F93CF93DF938C01C8E6D1E0DB
:100470008881998180179107D1F48C819D81AE810B
:10048000BF810097A105B10591F0288521110FC00A
:100490000197A109B1098C839D83AE83BF83892B0A
:1004A0008A2B8B2B21F48A819B810E9471022996D1
:1004B00081E0CF3ED807E1F6DF91CF911F910F91F8
:1004C000089580913301909134014096209131013B
:1004D00030913201821B930B60E170E00E9449036E
:1004E00008959C018091350190913601019660E15B
:1004F00070E00E944903909336018093350140914A
:100500003101509132018417950771F0E091330168
:10051000F0913401EE0FFF1FE95CFE4F3183208321
:10052000909334018093330108950097C1F0209196
:10053000310130913201F901EE0FFF1FE95CFE4FEE
:1005400040815181FC0151834083C901019660E1E2
:1005500070E00E944903909332018093310180E062
:1005600090E0089580E090E0089580E090E00895A4
:1005700080E090E008950E94A2000E94DB000E94AB
:10058000EC000E94B7010E94A5010E94BF0183B741
:10059000817F83BF0895789480915B0190915C0185
:1005A000892BA1F50E940301892B69F00E940C019F
:1005B0000197C9F40E9447010E94BB0180E090E0CE
:1005C0000E94310210C00E940C01892B79F70E9411
:1005D0006102892B59F783B7816083BF889583B700
:1005E0008E7F83BFDFCF0E940301019741F40E94F9
:1005F00017010E94B40181E090E00E9431020E9444
:100600006102892B49F20E940C03C6CFF894089529
:1006100008950895FFCFFFCFCF93DF9300D0CDB7DC
:10062000DEB7CE0101960E94950280915D01909106
:100630005E01892B81F489819A81049761F40E947B
:10064000A40021E030E040E050E064E070E080E0B1
:1006500090E00E94D9010F900F90DF91CF91089503
:100660000E94BB020E94B2028130910579F028F00D
:100670000297C1F70E940903F5CF0E94CB020E94A6
:10068000B502892B79F70E94B802ECCF0E940803CB
:10069000E9CF97FB072E16F4009407D077FD09D019
:1006A0000E945D0307FC05D03EF4909581959F4F15
:1006B0000895709561957F4F0895AA1BBB1B51E16A
:1006C00007C0AA1FBB1FA617B70710F0A61BB70BC2
:1006D000881F991F5A95A9F780959095BC01CD0167
:0606E0000895F894FFCF1D
:1006E600010068656C6C6F20776F726C64210D0A6F
:0206F600000002
:00000001FF
