:100000000C9434000C9451000C9451000C94510049
:100010000C9451000C9451000C9451000C9451001C
:100020000C9451000C9451000C9451000C948B01D1
:100030000C9451000C9451000C947A010C945100D2
:100040000C9451000C9451000C947A000C945100C3
:100050000C9451000C94CE000C9451000C9451005F
:100060000C9451000C94510011241FBECFEFD8E026
:10007000DEBFCDBF11E0A0E0B1E0E4EFF6E002C0EA
:1000800005900D92A233B107D9F722E0A2E3B1E0C7
:1000900001C01D92AC30B207E1F70E943D030C9401
:1000A00078030C94000081E88093C40086E080937C
:1000B000C500E0ECF0E0808182608083E1ECF0E05C
:1000C0008081886180838081806880830895909199
:1000D000C00095FFFCCF8093C6000895CF93DF93B7
:1000E000EC018991882319F00E946700FACFDF9113
:1000F000CF9108951F920F920FB60F9211242F9354
:100100003F934F935F936F937F938F939F93AF939F
:10011000BF93EF93FF938091C600E0917901F09136
:100120007A010995FF91EF91BF91AF919F918F91C6
:100130007F916F915F914F913F912F910F900FBEE3
:100140000F901F901895259A089595B180E2892700
:1001500085B908950895ECE7F0E08081806480839C
:10016000808181608083EAE7F0E08081866080831F
:100170008081806280838081886080830895EAE73F
:10018000F0E080818068808380818064808308952E
:10019000EAE7F0E080818F77808308951F920F92C5
:1001A0000FB60F9211240F900FBE0F901F9018954D
:1001B00084B5826084BD84B5816084BD85B584606A
:1001C00085BDEEE6F0E08081826080838BE987BDAB
:1001D0000895E1E8F0E0808188608083808181601B
:1001E0008083808184608083EFE6F0E0808182609C
:1001F000808388E09DE39093890080938800089530
:100200002091440181E090E0211102C080E090E063
:100210000895209142013091430181E090E0232B29
:1002200011F480E090E0089580914401882359F111
:100230008091440181508093440180913E019091CE
:100240003F01A0914001B09141010196A11DB11D56
:1002500080933E0190933F01A0934001B0934101F0
:100260008091360190913701A0913801B091390108
:100270000196A11DB11D8093360190933701A09383
:100280003801B09339010895809142019091430162
:10029000892B79F1809142019091430101979093CC
:1002A00043018093420180913A0190913B01A091DA
:1002B0003C01B0913D010196A11DB11D80933A0111
:1002C00090933B01A0933C01B0933D01809132019A
:1002D00090913301A0913401B09135010196A11D97
:1002E000B11D8093320190933301A0933401B093F8
:1002F000350108951F920F920FB60F9211248F931C
:10030000809144018F5F809344018F910F900FBEC5
:100310000F901F9018951F920F920FB60F921124F5
:100320008F939F9380914201909143010196909306
:100330004301809342019F918F910F900FBE0F90C8
:100340001F90189581E090E090937C0180937B0151
:10035000909348018093470190937E0180937D01A3
:1003600008950C94A500089583EB91E00E9453003A
:1003700083E291E00C946E000895E2E8F1E080E001
:1003800027E030E041E050E01482158216821782A7
:10039000338322831086853018F41182108202C0C4
:1003A000518340838F5F39968F3071F70895CF92D4
:1003B000DF92EF92FF920F931F93E2E8F1E0DF01EB
:1003C00000E010E0ED90FC9011978E159F05A1F4D0
:1003D0001296ED90FC9013976E157F0569F489E0F5
:1003E000809FF001819FF00D1124EE57FE4F248372
:1003F00035834683578323C00F5F1F4F19960F30F5
:10040000110501F700E010E0A081B1818A179B0778
:10041000C1F4C480D580E680F780CD28CE28CF28CF
:1004200081F489E0809FF001819FF00D1124EE5747
:10043000FE4F2483358346835783738362831086FC
:1004400006C00F5F1F4F39960F301105E9F61F9157
:100450000F91FF90EF90DF90CF90089508950F9344
:100460001F93CF93DF938C01C2E8D1E088819981FB
:1004700080179107D1F48C819D81AE81BF81009757
:10048000A105B10591F0288521110FC00197A1099F
:10049000B1098C839D83AE83BF83892B8A2B8B2BE1
:1004A00021F48A819B810E946F02299682E0C930E3
:1004B000D807E1F6DF91CF911F910F9108958091B8
:1004C0005301909154014096209151013091520175
:1004D000821B930B60E170E00E94500308959C0121
:1004E0008091550190915601019660E170E00E9463
:1004F00050039093560180935501409151015091C2
:1005000052018417950771F0E0915301F091540165
:10051000EE0FFF1FE95AFE4F318320839093540161
:100520008093530108950097C1F0209151013091BB
:100530005201F901EE0FFF1FE95AFE4F4081518130
:10054000FC0151834083C901019660E170E00E9483
:100550005003909352018093510180E090E0089500
:10056000809177019091780108950E94A3000E94E4
:10057000D8000E94E9000E94B4010E94A2010E94DA
:10058000BD0189E092E00E94370321E030E040E0C5
:1005900050E064E070E080E090E00E94D70183B713
:1005A000817F83BF0895789480917701909178013D
:1005B000892BA1F50E940001892B59F00E940901A5
:1005C0000197B9F40E94440180E090E00E942F025C
:1005D00010C00E940901892B89F70E945F02892BB4
:1005E00069F783B7816083BF889583B78E7F83BFA8
:1005F000E1CF0E940001019741F40E9414010E9482
:10060000BC0181E090E00E942F020E945F02892BD2
:1006100059F289E092E00E942D03C6CFF894089524
:100620000895089508950E94A50080E090E008953F
:1006300080E090E0089580E090E0089580E090E010
:10064000089580E090E0089580E090E0089580E0D3
:1006500090E0089580E090E00895DC011196ED911E
:10066000FC9112970190F081E02D0994089522E009
:1006700031E0FC013283218308950E94B5020E947B
:10068000B0028130910549F028F00297C1F70E942D
:100690001103F5CF0E94D302F2CF0E941003EFCFD7
:1006A00097FB072E16F4009407D077FD09D00E941F
:1006B000640307FC05D03EF4909581959F4F089503
:1006C000709561957F4F0895AA1BBB1B51E107C030
:1006D000AA1FBB1FA617B70710F0A61BB70B881FD2
:1006E000991F5A95A9F780959095BC01CD01089561
:0406F000F894FFCFAC
:1006F400010013031B031E03000000000021032458
:1007040003270300000000002A031803120300005B
:1007140000000068656C6C6F20776F726C64210D4B
:020724000A00C9
:00000001FF
