:100000000C9434000C9451000C9451000C94510049
:100010000C9451000C9451000C9451000C9451001C
:100020000C9451000C9451000C9451000C948B01D1
:100030000C9451000C9451000C947A010C945100D2
:100040000C9451000C9451000C947A000C945100C3
:100050000C9451000C94CE000C9451000C9451005F
:100060000C9451000C94510011241FBECFEFD8E026
:10007000DEBFCDBF11E0A0E0B1E0E8ECF6E002C0E9
:1000800005900D92AA31B107D9F721E0AAE1B1E0BC
:1000900001C01D92A33FB207E1F70E9427030C9411
:1000A00062030C94000081E88093C40086E0809392
:1000B000C500E0ECF0E0808182608083E1ECF0E05C
:1000C0008081886180838081806880830895909199
:1000D000C00095FFFCCF8093C6000895CF93DF93B7
:1000E000EC018991882319F00E946700FACFDF9113
:1000F000CF9108951F920F920FB60F9211242F9354
:100100003F934F935F936F937F938F939F93AF939F
:10011000BF93EF93FF938091C600E0916101F0914E
:1001200062010995FF91EF91BF91AF919F918F91DE
:100130007F916F915F914F913F912F910F900FBEE3
:100140000F901F901895259A089595B180E2892700
:1001500085B908950895ECE7F0E08081806480839C
:10016000808181608083EAE7F0E08081866080831F
:100170008081806280838081886080830895EAE73F
:10018000F0E080818068808380818064808308952E
:10019000EAE7F0E080818F77808308951F920F92C5
:1001A0000FB60F9211240F900FBE0F901F9018954D
:1001B00084B5826084BD84B5816084BD85B584606A
:1001C00085BDEEE6F0E08081826080838BE987BDAB
:1001D0000895E1E8F0E0808188608083808181601B
:1001E0008083808184608083EFE6F0E0808182609C
:1001F000808388E09DE39093890080938800089530
:1002000020912C0181E090E0211102C080E090E07B
:10021000089520912A0130912B0181E090E0232B59
:1002200011F480E090E0089580912C01882359F129
:1002300080912C01815080932C0180912601909116
:100240002701A0912801B09129010196A11DB11D9E
:100250008093260190932701A0932801B093290150
:1002600080911E0190911F01A0912001B091210168
:100270000196A11DB11D80931E0190931F01A093B3
:100280002001B0932101089580912A0190912B01C2
:10029000892B79F180912A0190912B0101979093FC
:1002A0002B0180932A018091220190912301A0913A
:1002B0002401B09125010196A11DB11D8093220159
:1002C00090932301A0932401B093250180911A01FA
:1002D00090911B01A0911C01B0911D010196A11DDF
:1002E000B11D80931A0190931B01A0931C01B09340
:1002F0001D0108951F920F920FB60F9211248F9334
:1003000080912C018F5F80932C018F910F900FBEF5
:100310000F901F9018951F920F920FB60F921124F5
:100320008F939F9380912A0190912B010196909336
:100330002B0180932A019F918F910F900FBE0F90F8
:100340001F90189581E090E0909364018093630181
:100350009093300180932F01909366018093650103
:1003600008950C94A500089583EB91E00E9453003A
:100370008AE091E00C946E000895EAE6F1E080E0F6
:1003800027E030E041E050E01482158216821782A7
:10039000338322831086853018F41182108202C0C4
:1003A000518340838F5F39968F3071F70895CF92D4
:1003B000DF92EF92FF920F931F93EAE6F1E0DF01E5
:1003C00000E010E0ED90FC9011978E159F05A1F4D0
:1003D0001296ED90FC9013976E157F0569F489E0F5
:1003E000809FF001819FF00D1124E659FE4F248378
:1003F00035834683578323C00F5F1F4F19960F30F5
:10040000110501F700E010E0A081B1818A179B0778
:10041000C1F4C480D580E680F780CD28CE28CF28CF
:1004200081F489E0809FF001819FF00D1124E6594D
:10043000FE4F2483358346835783738362831086FC
:1004400006C00F5F1F4F39960F301105E9F61F9157
:100450000F91FF90EF90DF90CF90089508950F9344
:100460001F93CF93DF938C01CAE6D1E088819981F5
:1004700080179107D1F48C819D81AE81BF81009757
:10048000A105B10591F0288521110FC00197A1099F
:10049000B1098C839D83AE83BF83892B8A2B8B2BE1
:1004A00021F48A819B810E946F02299681E0C13FDD
:1004B000D807E1F6DF91CF911F910F9108958091B8
:1004C0003B0190913C0140962091390130913A01D5
:1004D000821B930B60E170E00E943A0308959C0137
:1004E00080913D0190913E01019660E170E00E9493
:1004F0003A0390933E0180933D0140913901509120
:100500003A018417950771F0E0913B01F0913C01AD
:10051000EE0FFF1FE15CFE4F3183208390933C017F
:1005200080933B0108950097C1F0209139013091EB
:100530003A01F901EE0FFF1FE15CFE4F408151814E
:10054000FC0151834083C901019660E170E00E9483
:100550003A0390933A018093390180E090E0089546
:10056000089580E090E0089580E090E0089522E012
:1005700031E0FC0131832083089580915F019091E7
:10058000600108950E94A3000E94D8000E94E90023
:100590000E94B4010E94A2010E94BD0181EF91E07E
:1005A0000E94B70221E030E040E050E064E070E0FB
:1005B00080E090E00E94D70183B7817F83BF0895D8
:1005C000789480915F0190916001892BA1F50E9440
:1005D0000001892B59F00E9409010197B9F40E948A
:1005E000440180E090E00E942F0210C00E940901A7
:1005F000892B89F70E945F02892B69F783B7816095
:1006000083BF889583B78E7F83BFE1CF0E940001AF
:10061000019741F40E9414010E94BC0181E090E026
:100620000E942F020E945F02892B59F281EF91E014
:100630000E941F03C6CFF894089508950895DC0121
:10064000ED91FC910480F581E02D099408950E94BC
:10065000C2020E94BD028130910549F028F0029744
:10066000C1F70E941E03F5CF0E94E002F2CF0E9464
:100670001D03EFCF97FB072E16F4009407D077FDEC
:1006800009D00E944E0307FC05D03EF49095819559
:100690009F4F0895709561957F4F0895AA1BBB1BCE
:1006A00051E107C0AA1FBB1FA617B70710F0A61B72
:1006B000B70B881F991F5A95A9F780959095BC0193
:0806C000CD010895F894FFCF6D
:1006C8000100B102B002B402000068656C6C6F20D2
:0A06D800776F726C64210D0A0000B8
:00000001FF
