:100000000C9434000C9451000C9451000C94510049
:100010000C9451000C9451000C9451000C9451001C
:100020000C9451000C9451000C9451000C94290331
:100030000C9451000C9451000C9418030C94510032
:100040000C9451000C9451000C944D020C945100EE
:100050000C9451000C9463030C9451000C945100C7
:100060000C9451000C94510011241FBECFEFD8E026
:10007000DEBFCDBF11E0A0E0B1E0E4E8F9E002C0EE
:1000800005900D92A638B107D9F722E0A6E8B1E0B5
:1000900001C01D92A736B207E1F70E947F040C94BD
:1000A000C0040C94000080E090E0089580E090E0AF
:1000B000089580E090E008950E946D030E9476020A
:1000C0000E9487020E9469040E946E040E94C60377
:1000D0000E94F10080E491E00E94410221E030E0C2
:1000E00040E050E064E070E080E090E00E94E003D7
:1000F00083B7817F83BF0895CF93DF9300D0CDB7BF
:10010000DEB7789480918A0190918B01892BB1F5AB
:100110000E949E02892B59F00E94A7020197B9F410
:100120000E94E20280E090E00E94380410C00E9429
:10013000A702892B89F70E947503892B69F783B77A
:10014000816083BF889583B78E7F83BFE1CF0E9494
:100150009E02019741F40E94B2020E946D0481E068
:1001600090E00E9438040E947503892B59F2CE0159
:1001700001960E94A9030E94F900C4CFF8940F9041
:100180000F90DF91CF91089508950895FB0182812A
:1001900093810E94410280E591E00C944102FB01B1
:1001A000828193810E94410288E591E00C94410292
:1001B000FB01828193810E9441028FE591E00C94C2
:1001C0004102CF93DF93EB0188E691E00E94410268
:1001D000EA81FB81808191810E944102DF91CF9170
:1001E000089544E151E060E371E081ED91E00C9409
:1001F0003101CF93DF9300D000D000D0CDB7DEB770
:100200001A82198280E791E09E838D83CE01059644
:100210009C838B83BE016F5F7F4F81ED91E00E94D5
:100220003B0126960FB6F894DEBF0FBECDBFDF911F
:10023000CF910895FC018081918193838283A48171
:10024000B581B183A083109759F01A96ED91FC9176
:100250001B97309729F018968D919C9119970994C6
:100260000895FC01892B31F071836083138212821F
:100270005583448308958F929F92AF92BF92CF92FD
:10028000DF92EF92FF920F931F93CF93DF9300972C
:1002900009F4A5C06115710509F4A1C07B018C01A9
:1002A000DC01CD91DC91209729F4B701C8010E94AF
:1002B0001A019BC08E819F81892B01F582E090E01D
:1002C00099C0CC80DD80C80CD91CF6012081318119
:1002D000D7018D919C9128173907A9F0BFEFAB1A70
:1002E000BB0AEAE08E0E911C8E819F81A816B9068A
:1002F00040F30990D881C02D209701F3812C912CD7
:10030000A12CB12CF1CFD6010480F581E02D3097DE
:1003100041F0B70112968D919C911397099588230E
:10032000E9F2C114D10429F3F601C085D1852097E3
:1003300009F4BBCF8A819B81009711F0EC01FACFC1
:10034000F801A081B181CA17DB0761F01C96ED911D
:10035000FC911D97309731F0B70118968D919C91C3
:1003600019970995D6011696ED91FC91179730973C
:1003700061F048855985D8018D919C91B701DC01C8
:1003800018968D919C9119970995F801808191811A
:10039000C817D90741F0EA85FB85309721F0B701EE
:1003A000888599850995D8018D919C91119713960F
:1003B0009C938E9312971196DC93CE93C817D9070E
:1003C00089F014968D919C911597C817D90769F0FB
:1003D0008E819F81892B61F080E090E00BC08EEFD1
:1003E0009FEF08C081E090E005C08FEF9FEF02C053
:1003F00083E090E0DF91CF911F910F91FF90EF90FC
:10040000DF90CF90BF90AF909F908F90089500970E
:1004100021F0FC0180819181089580E090E00895B1
:10042000009721F0FC0182819381089580E090E0A3
:100430000895009751F0DC01ED91FC9181E0268157
:100440003781232B19F080E0089581E0089587E03B
:100450008093C4001092C500E0ECF0E080818260DF
:100460008083E1ECF0E08081886180838081806816
:10047000808308959091C00095FFFCCF8093C600C3
:100480000895CF93DF93EC018991882319F00E949E
:100490003A02FACFDF91CF9108951F920F920FB6D3
:1004A0000F9211242F933F934F935F936F937F93FA
:1004B0008F939F93AF93BF93EF93FF938091C60069
:1004C000E091D701F091D8010995FF91EF91BF918B
:1004D000AF919F918F917F916F915F914F913F91DC
:1004E0002F910F900FBE0F901F90189584B58260CA
:1004F00084BD84B5816084BD85B5846085BDEEE62C
:10050000F0E08081826080838BE987BD0895E1E817
:10051000F0E0808188608083808181608083808139
:1005200084608083EFE6F0E080818260808388E0F1
:100530009DE39093890080938800089520919E0107
:1005400081E090E0211102C080E090E008952091C8
:100550009C0130919D0181E090E0232B11F480E01B
:1005600090E0089580919E01882359F180919E0129
:10057000815080939E018091980190919901A09162
:100580009A01B0919B010196A11DB11D8093980124
:1005900090939901A0939A01B0939B01809190014F
:1005A00090919101A0919201B09193010196A11DAA
:1005B000B11D8093900190939101A0939201B0930B
:1005C0009301089580919C0190919D01892B79F16F
:1005D00080919C0190919D01019790939D01809342
:1005E0009C018091940190919501A0919601B09108
:1005F00097010196A11DB11D8093940190939501DF
:10060000A0939601B093970180918C0190918D01F8
:10061000A0918E01B0918F010196A11DB11D809313
:100620008C0190938D01A0938E01B0938F0108955A
:100630001F920F920FB60F9211248F9380919E01FB
:100640008F5F80939E018F910F900FBE0F901F9030
:1006500018951F920F920FB60F9211248F939F93AC
:1006600080919C0190919D01019690939D018093B2
:100670009C019F918F910F900FBE0F901F90189526
:10068000ECE7F0E0808180648083808181608083FA
:10069000EAE7F0E0808186608083808180628083E9
:1006A0008081886080830895EAE7F0E08081806837
:1006B00080838081806480830895EAE7F0E0808110
:1006C0008F77808308951F920F920FB60F92112497
:1006D0000F900FBE0F901F901895259A089595B111
:1006E00080E2892785B9089508958091A1019091AC
:1006F000A201409620919F013091A001821B930B93
:1007000060E170E00E94980408959C018091A3012B
:100710009091A401019660E170E00E94980490938A
:10072000A4018093A30140919F015091A0018417DF
:10073000950771F0E091A101F091A201EE0FFF1F6A
:10074000EB55FE4F318320839093A2018093A1014A
:1007500008950097C1F020919F013091A001F90107
:10076000EE0FFF1FEB55FE4F40815181FC0151837D
:100770004083C901019660E170E00E949804909363
:10078000A00180939F0180E090E00895E9EDF1E001
:1007900080E026E030E041E050E0148215821682CD
:1007A0001782338322831086853018F411821082D9
:1007B00002C0518340838F5F39968F3071F708955F
:1007C000CF92DF92EF92FF920F931F93E9EDF1E04A
:1007D000DF0100E010E0ED90FC9011978E159F0571
:1007E000A1F41296ED90FC9013976E157F0569F4B5
:1007F00089E0809FF001819FF00D1124E752FE4FA8
:10080000248335834683578323C00F5F1F4F199678
:100810000F30110501F700E010E0A081B1818A17C7
:100820009B07C1F4C480D580E680F780CD28CE2810
:10083000CF2881F489E0809FF001819FF00D112481
:10084000E752FE4F24833583468357837383628345
:10085000108606C00F5F1F4F39960F301105E9F65D
:100860001F910F91FF90EF90DF90CF900895089522
:100870000F931F93CF93DF938C01C9EDD1E0888153
:10088000998180179107D1F48C819D81AE81BF81C0
:100890000097A105B10591F0288521110FC001979E
:1008A000A109B1098C839D83AE83BF83892B8A2BD9
:1008B0008B2B21F48A819B810E948503299682E0FB
:1008C000C036D807E1F6DF91CF911F910F910895BF
:1008D000089588E694E00C942702089581E090E062
:1008E00090936402809363029093C8018093C70140
:1008F000909366028093650208950C946F030E94A2
:100900005C000E9453008130910579F028F0029735
:10091000C1F70E94C500F5CF0E947C000E945600DE
:10092000892B79F70E945900ECCF0E94C400E9CFCF
:1009300097FB072E16F4009407D077FD09D00E948C
:10094000AC0407FC05D03EF4909581959F4F089527
:10095000709561957F4F0895AA1BBB1B51E107C09D
:10096000AA1FBB1FA617B70710F0A61BB70B881F3F
:10097000991F5A95A9F780959095BC01CD010895CE
:04098000F894FFCF19
:1009840000006100E100D800300100006100E100D6
:10099400D800220100000000000000007B01C60016
:1009A400000000000000000101008101C600CF002A
:1009B400000000000A0101008101C600CF0001000F
:1009C40073797374656D2072656164792E0D0A0004
:1009D400656E7472790D0A00657869740D0A006198
:1009E4006374696F6E0D0A0067756172640D0A00A5
:1009F4006576656E74206F6E6521004572726F7244
:060A04000075736572002D
:00000001FF
