:100000000C9434000C9451000C9451000C94510049
:100010000C9451000C9451000C9451000C9451001C
:100020000C9451000C9451000C9451000C94DC0180
:100030000C9451000C9451000C94CB010C94510081
:100040000C9451000C9451000C94CB000C94510072
:100050000C9451000C941F010C9451000C9451000D
:100060000C9451000C94510011241FBECFEFD8E026
:10007000DEBFCDBF11E0A0E0B1E0E8ECF6E002C0E9
:1000800005900D92AA31B107D9F721E0AAE1B1E0BC
:1000900001C01D92A33FB207E1F70E9427030C9411
:1000A00062030C94000080911C0190911D01409608
:1000B00020911A0130911B01821B930B60E170E0CB
:1000C0000E943A0308959C0180911E0190911F01A6
:1000D000019660E170E00E943A0390931F018093C3
:1000E0001E0140911A0150911B018417950771F070
:1000F000E0911C01F0911D01EE0FFF1FE05EFE4F2D
:100100003183208390931D0180931C0108950097F3
:10011000C1F020911A0130911B01F901EE0FFF1F70
:10012000E05EFE4F40815181FC0151834083C90153
:10013000019660E170E00E943A0390931B01809366
:100140001A0180E090E0089581E88093C40086E081
:100150008093C500E0ECF0E0808182608083E1EC78
:10016000F0E0808188618083808180688083089549
:100170009091C00095FFFCCF8093C6000895CF9367
:10018000DF93EC018991882319F00E94B800FACF1F
:10019000DF91CF9108951F920F920FB60F92112405
:1001A0002F933F934F935F936F937F938F939F937F
:1001B000AF93BF93EF93FF938091C600E0916101ED
:1001C000F09162010995FF91EF91BF91AF919F91DD
:1001D0008F917F916F915F914F913F912F910F90F0
:1001E0000FBE0F901F901895259A089595B180E243
:1001F000892785B908950895ECE7F0E0808180644F
:100200008083808181608083EAE7F0E0808186607E
:10021000808380818062808380818860808308956C
:10022000EAE7F0E080818068808380818064808359
:100230000895EAE7F0E080818F77808308951F9228
:100240000F920FB60F9211240F900FBE0F901F90B8
:10025000189584B5826084BD84B5816084BD85B500
:10026000846085BDEEE6F0E08081826080838BE96A
:1002700087BD0895E1E8F0E0808188608083808117
:1002800081608083808184608083EFE6F0E08081FC
:100290008260808388E09DE390938900809388004A
:1002A00008952091520181E090E0211102C080E088
:1002B00090E00895209150013091510181E090E04B
:1002C000232B11F480E090E008958091520188235F
:1002D00059F18091520181508093520180914C01DB
:1002E00090914D01A0914E01B0914F010196A11D39
:1002F000B11D80934C0190934D01A0934E01B0939A
:100300004F018091440190914501A0914601B09127
:1003100047010196A11DB11D8093440190934501B1
:10032000A0934601B09347010895809150019091A8
:100330005101892B79F180915001909151010197E0
:10034000909351018093500180914801909149010F
:10035000A0914A01B0914B010196A11DB11D80935E
:10036000480190934901A0934A01B0934B018091B9
:10037000400190914101A0914201B0914301019649
:10038000A11DB11D8093400190934101A0934201B2
:10039000B093430108951F920F920FB60F9211244C
:1003A0008F93809152018F5F809352018F910F90B4
:1003B0000FBE0F901F9018951F920F920FB60F92BD
:1003C00011248F939F938091500190915101019638
:1003D00090935101809350019F918F910F900FBE88
:1003E0000F901F901895809153019091540108959A
:1003F0000E94F4000E9429010E943A010E94160303
:100400000E9462020E94730283E691E00E945C02F5
:1004100021E030E040E050E064E070E080E090E017
:100420000E948D0283B7817F83BF08957894809165
:10043000530190915401892BA1F50E945101892B00
:1004400059F00E945A010197B9F40E94950180E089
:1004500090E00E94E50210C00E945A01892B89F7A2
:100460000E945300892B69F783B7816083BF889509
:1004700083B78E7F83BFE1CF0E945101019741F482
:100480000E9465010E941E0381E090E00E94E50247
:100490000E945300892B59F283E691E00E941F03CA
:1004A000C6CFF894089508950895089580E090E0E7
:1004B000089580E090E0089522E031E0FC0131836E
:1004C0002083089581E090E0909366018093650118
:1004D000909358018093570190936801809367012E
:1004E00008950C94F600E9E6F1E080E027E030E0C2
:1004F00041E050E0148215821682178233832283F2
:100500001086853018F41182108202C05183408316
:100510008F5F39968F3071F70895CF92DF92EF9207
:10052000FF920F931F93E9E6F1E0DF0100E010E096
:10053000ED90FC9011978E159F05A1F41296ED9009
:10054000FC9013976E157F0569F489E0809FF00198
:10055000819FF00D1124E759FE4F24833583468394
:10056000578323C00F5F1F4F19960F30110501F7F6
:1005700000E010E0A081B1818A179B07C1F4C4801C
:10058000D580E680F780CD28CE28CF2881F489E079
:10059000809FF001819FF00D1124E759FE4F2483C5
:1005A00035834683578373836283108606C00F5F4B
:1005B0001F4F39960F301105E9F61F910F91FF90EB
:1005C000EF90DF90CF90089508950F931F93CF93EE
:1005D000DF938C01C9E6D1E088819981801791076A
:1005E000D1F48C819D81AE81BF810097A105B105B9
:1005F00091F0288521110FC00197A109B1098C83C1
:100600009D83AE83BF83892B8A2B8B2B21F48A8118
:100610009B810E946300299681E0C03FD807E1F6E4
:10062000DF91CF911F910F910895089585E193E097
:100630000E94A4008AE091E00C94BF000895DC01C0
:10064000ED91FC910480F581E02D099408950E94BC
:10065000F8010E94F3018130910549F028F00297DA
:10066000C1F70E945402F5CF0E941602F2CF0E94F9
:100670005302EFCF97FB072E16F4009407D077FDB7
:1006800009D00E944E0307FC05D03EF49095819559
:100690009F4F0895709561957F4F0895AA1BBB1BCE
:1006A00051E107C0AA1FBB1FA617B70710F0A61B72
:1006B000B70B881F991F5A95A9F780959095BC0193
:0806C000CD010895F894FFCF6D
:1006C8000100560255025902000068656C6C6F20E3
:0A06D800776F726C64210D0A0000B8
:00000001FF
