:100000000C9434000C9451000C9451000C94510049
:100010000C9451000C9451000C9451000C9451001C
:100020000C9451000C9451000C9451000C948A01D2
:100030000C9451000C9451000C9479010C945100D3
:100040000C9451000C9451000C9479000C945100C4
:100050000C9451000C94CD000C9451000C94510060
:100060000C9451000C94510011241FBECFEFD8E026
:10007000DEBFCDBF11E0A0E0B1E0EAEDF6E002C0E6
:1000800005900D92A230B107D9F721E0A2E0B1E0CE
:1000900001C01D92AF3DB207E1F70E942A030C9404
:1000A0006B030C94000087E08093C4001092C5009D
:1000B000E0ECF0E0808182608083E1ECF0E0808120
:1000C0008861808380818068808308959091C000DA
:1000D00095FFFCCF8093C6000895CF93DF93EC018A
:1000E0008991882319F00E946600FACFDF91CF91A1
:1000F00008951F920F920FB60F9211242F933F93E2
:100100004F935F936F937F938F939F93AF93BF931F
:10011000EF93FF938091C600E0914F01F091500161
:100120000995FF91EF91BF91AF919F918F917F9131
:100130006F915F914F913F912F910F900FBE0F9054
:100140001F901895259A089595B180E2892785B961
:1001500008950895ECE7F0E08081806480838081D9
:1001600081608083EAE7F0E080818660808380811F
:10017000806280838081886080830895EAE7F0E070
:100180008081806880838081806480830895EAE72D
:10019000F0E080818F77808308951F920F920FB6D1
:1001A0000F9211240F900FBE0F901F90189584B5D9
:1001B000826084BD84B5816084BD85B5846085BD61
:1001C000EEE6F0E08081826080838BE987BD089550
:1001D000E1E8F0E0808188608083808181608083B5
:1001E000808184608083EFE6F0E08081826080839C
:1001F00088E09DE390938900809388000895209182
:10020000140181E090E0211102C080E090E00895A7
:10021000209112013091130181E090E0232B11F421
:1002200080E090E0089580911401882359F1809135
:10023000140181508093140180910E0190910F015F
:10024000A0911001B09111010196A11DB11D8093E3
:100250000E0190930F01A0931001B09311018091B2
:10026000060190910701A0910801B0910901019642
:10027000A11DB11D8093060190930701A093080171
:10028000B093090108958091120190911301892B77
:1002900079F18091120190911301019790931301CC
:1002A0008093120180910A0190910B01A0910C01A1
:1002B000B0910D010196A11DB11D80930A0190938B
:1002C0000B01A0930C01B0930D018091020190915C
:1002D0000301A0910401B09105010196A11DB11D7A
:1002E0008093020190930301A0930401B093050150
:1002F00008951F920F920FB60F9211248F93809141
:1003000014018F5F809314018F910F900FBE0F9097
:100310001F9018951F920F920FB60F9211248F9372
:100320009F93809112019091130101969093130174
:10033000809312019F918F910F900FBE0F901F908D
:10034000189581E090E09093520180935101909331
:1003500018018093170190935401809353010895DD
:100360000C94A400089582EB91E00C94530008953E
:10037000E8E5F1E080E027E030E091E041E050E0A6
:1003800014821582168217823383228390878530E8
:1003900018F41182108202C0518340838F5F399616
:1003A0008F3071F70895CF92DF92EF92FF920F9303
:1003B0001F93E8E5F1E0DF0100E010E0ED90FC9034
:1003C00011978E159F05A1F41296ED90FC9013974E
:1003D0006E157F0569F489E0809FF001819FF00D23
:1003E0001124E85AFE4F248335834683578323C064
:1003F0000F5F1F4F19960F30110501F700E010E055
:10040000A081B1818A179B07C1F4C480D580E680A2
:10041000F780CD28CE28CF2881F489E0809FF00195
:10042000819FF00D1124E85AFE4F248335834683C3
:10043000578373836283108606C00F5F1F4F399600
:100440000F301105E9F61F910F91FF90EF90DF90AB
:10045000CF90089508950F931F93CF93DF938C014E
:10046000C8E5D1E08881998180179107D1F48C810A
:100470009D81AE81BF810097A105B10591F02885CE
:1004800021110FC00197A109B1098C839D83AE830F
:10049000BF83892B8A2B8B2B21F48A819B810E941D
:1004A0006B02299681E0CF3DD807E1F6DF91CF912D
:1004B0001F910F91089580912301909124014096FE
:1004C0002091210130912201821B930B60E170E0A9
:1004D0000E94430308959C0180912501909126017B
:1004E000019660E170E00E9443039093260180939F
:1004F000250140912101509122018417950771F047
:10050000E0912301F0912401EE0FFF1FE95DFE4F02
:1005100031832083909324018093230108950097D1
:10052000C1F02091210130912201F901EE0FFF1F4E
:10053000E95DFE4F40815181FC0151834083C90137
:10054000019660E170E00E94430390932201809342
:10055000210180E090E0089580E090E0089580E03F
:1005600090E0089580E090E008950E94A2000E942B
:10057000D7000E94E8000E94B3010E94A1010E94DE
:10058000B80125E030E040E050E066E070E080E057
:1005900090E00E94D30183B7817F83BF0895789450
:1005A00080914B0190914C01892B71F50E94FF00C5
:1005B000892B59F00E940801019799F40E94430188
:1005C00080E090E00E942B020CC00E940801892B61
:1005D00089F783B7816083BF889583B78E7F83BF98
:1005E000E5CF0E94FF00019741F40E9413010E9491
:1005F000B70181E090E00E942B020E945B02892BF0
:1006000079F20E940A03CCCFF894089508950895D2
:10061000FFCFFFCFCF93DF9300D0CDB7DEB7CE01B2
:1006200001960E948F029A83898320914D01309117
:100630004E01232B51F4069741F40E94A40081E05F
:1006400090E090934E0180934D010F900F90DF91B9
:10065000CF9108950E94B5020E94AC0281309105AD
:1006600079F028F00297C1F70E940703F5CF0E94A6
:10067000CF020E94AF02892B79F70E94B202ECCF21
:100680000E940603E9CF97FB072E16F4009407D0CB
:1006900077FD09D00E94570307FC05D03EF49095E2
:1006A00081959F4F0895709561957F4F0895AA1B7E
:1006B000BB1B51E107C0AA1FBB1FA617B70710F04D
:1006C000A61BB70B881F991F5A95A9F7809590957F
:0A06D000BC01CD010895F894FFCF9E
:0206DA0001001D
:00000001FF
