:100000000C9434000C9451000C9451000C94510049
:100010000C9451000C9451000C9451000C9451001C
:100020000C9451000C9451000C9451000C94D1028A
:100030000C9451000C9451000C94C0020C9451008B
:100040000C9451000C9451000C94F5010C94510047
:100050000C9451000C940B030C9451000C9451001F
:100060000C9451000C94510011241FBECFEFD8E026
:10007000DEBFCDBF11E0A0E0B1E0E4EDF8E002C0EA
:1000800005900D92AC34B107D9F722E0ACE4B1E0B1
:1000900001C01D92AD32B207E1F70E9427040C9413
:1000A00068040C94000080E090E0089580E090E007
:1000B000089580E090E008950E9415030E941E02BA
:1000C0000E942F020E9411040E9416040E946E03D7
:1000D0000E94B90021E030E040E050E064E070E0D0
:1000E00080E090E00E94880383B7817F83BF0895FA
:1000F00078948091500190915101892B91F50E9443
:100100004602892B59F00E944F020197B9F40E94D0
:100110008A0280E090E00E94E00310C00E944F023B
:10012000892B89F70E941D03892B69F783B78160AA
:1001300083BF889583B78E7F83BFE1CF0E9446023D
:10014000019741F40E945A020E94150481E090E058
:100150000E94E0030E941D03892B59F20E94C100F6
:10016000C8CFF894089508950895089508950895BE
:10017000089544E151E060E371E087E991E00C9477
:10018000D9000895FC018081918193838283A481A9
:10019000B581B183A083109759F01A96ED91FC9127
:1001A0001B97309729F018968D919C911997099477
:1001B0000895FC01892B31F07183608313821282D0
:1001C0005583448308958F929F92AF92BF92CF92AE
:1001D000DF92EF92FF920F931F93CF93DF930097DD
:1001E00009F4A5C06115710509F4A1C07B018C015A
:1001F000DC01CD91DC91209729F4B701C8010E9460
:10020000C2009BC08E819F81892B01F582E090E026
:1002100099C0CC80DD80C80CD91CF60120813181C9
:10022000D7018D919C9128173907A9F0BFEFAB1A20
:10023000BB0AEAE08E0E911C8E819F81A816B9063A
:1002400040F30990D881C02D209701F3812C912C87
:10025000A12CB12CF1CFD6010480F581E02D30978F
:1002600041F0B70112968D919C91139709958823BF
:10027000E9F2C114D10429F3F601C085D185209794
:1002800009F4BBCF8A819B81009711F0EC01FACF72
:10029000F801A081B181CA17DB0761F01C96ED91CE
:1002A000FC911D97309731F0B70118968D919C9174
:1002B00019970995D6011696ED91FC9117973097ED
:1002C00061F048855985D8018D919C91B701DC0179
:1002D00018968D919C9119970995F80180819181CB
:1002E000C817D90741F0EA85FB85309721F0B7019F
:1002F000888599850995D8018D919C9111971396C0
:100300009C938E9312971196DC93CE93C817D907BE
:1003100089F014968D919C911597C817D90769F0AB
:100320008E819F81892B61F080E090E00BC08EEF81
:100330009FEF08C081E090E005C08FEF9FEF02C003
:1003400083E090E0DF91CF911F910F91FF90EF90AC
:10035000DF90CF90BF90AF909F908F9008950097BF
:1003600021F0FC0180819181089580E090E0089562
:10037000009721F0FC0182819381089580E090E054
:100380000895009751F0DC01ED91FC9181E0268108
:100390003781232B19F080E0089581E0089587E0EC
:1003A0008093C4001092C500E0ECF0E08081826090
:1003B0008083E1ECF0E080818861808380818068C7
:1003C000808308959091C00095FFFCCF8093C60074
:1003D0000895CF93DF93EC018991882319F00E944F
:1003E000E201FACFDF91CF9108951F920F920FB6DD
:1003F0000F9211242F933F934F935F936F937F93AB
:100400008F939F93AF93BF93EF93FF938091C60019
:10041000E0919D01F0919E010995FF91EF91BF91AF
:10042000AF919F918F917F916F915F914F913F918C
:100430002F910F900FBE0F901F90189584B582607A
:1004400084BD84B5816084BD85B5846085BDEEE6DC
:10045000F0E08081826080838BE987BD0895E1E8C8
:10046000F0E08081886080838081816080838081EA
:1004700084608083EFE6F0E080818260808388E0A2
:100480009DE39093890080938800089520916401F2
:1004900081E090E0211102C080E090E00895209179
:1004A00062013091630181E090E0232B11F480E040
:1004B00090E0089580916401882359F1809164014E
:1004C00081508093640180915E0190915F01A091C1
:1004D0006001B09161010196A11DB11D80935E0183
:1004E00090935F01A0936001B093610180915601E8
:1004F00090915701A0915801B09159010196A11D09
:10050000B11D8093560190935701A0935801B09369
:10051000590108958091620190916301892B79F1CD
:1005200080916201909163010197909363018093A0
:10053000620180915A0190915B01A0915C01B091A0
:100540005D010196A11DB11D80935A0190935B013D
:10055000A0935C01B0935D01809152019091530191
:10056000A0915401B09155010196A11DB11D809338
:10057000520190935301A0935401B09355010895F3
:100580001F920F920FB60F9211248F9380916401E6
:100590008F5F809364018F910F900FBE0F901F901B
:1005A00018951F920F920FB60F9211248F939F935D
:1005B0008091620190916301019690936301809311
:1005C00062019F918F910F900FBE0F901F90189511
:1005D000ECE7F0E0808180648083808181608083AB
:1005E000EAE7F0E08081866080838081806280839A
:1005F0008081886080830895EAE7F0E080818068E8
:1006000080838081806480830895EAE7F0E08081C0
:100610008F77808308951F920F920FB60F92112447
:100620000F900FBE0F901F901895259A089595B1C1
:1006300080E2892785B90895089580916701909196
:10064000680140962091650130916601821B930BF1
:1006500060E170E00E94400408959C01809169016E
:1006600090916A01019660E170E00E9440049093CD
:100670006A01809369014091650150916601841778
:10068000950771F0E0916701F0916801EE0FFF1F8F
:10069000E559FE4F31832083909368018093670171
:1006A00008950097C1F02091650130916601F9012C
:1006B000EE0FFF1FE559FE4F40815181FC01518330
:1006C0004083C901019660E170E00E94400490936C
:1006D00066018093650180E090E00895EFE9F1E024
:1006E00080E026E030E041E050E01482158216827E
:1006F0001782338322831086853018F4118210828A
:1007000002C0518340838F5F39968F3071F708950F
:10071000CF92DF92EF92FF920F931F93EFE9F1E0F8
:10072000DF0100E010E0ED90FC9011978E159F0521
:10073000A1F41296ED90FC9013976E157F0569F465
:1007400089E0809FF001819FF00D1124E156FE4F5A
:10075000248335834683578323C00F5F1F4F199629
:100760000F30110501F700E010E0A081B1818A1778
:100770009B07C1F4C480D580E680F780CD28CE28C1
:10078000CF2881F489E0809FF001819FF00D112432
:10079000E156FE4F248335834683578373836283F8
:1007A000108606C00F5F1F4F39960F301105E9F60E
:1007B0001F910F91FF90EF90DF90CF9008950895D3
:1007C0000F931F93CF93DF938C01CFE9D1E0888102
:1007D000998180179107D1F48C819D81AE81BF8171
:1007E0000097A105B10591F0288521110FC001974F
:1007F000A109B1098C839D83AE83BF83892B8A2B8A
:100800008B2B21F48A819B810E942D03299682E003
:10081000C632D807E1F6DF91CF911F910F9108956D
:10082000089580E194E00C94CF01089581E090E078
:1008300090932A028093290290938E0180938D01D8
:1008400090932C0280932B0208950C9417030E941E
:100850005C000E9453008130910579F028F00297E6
:10086000C1F70E94B400F5CF0E9478000E945600A4
:10087000892B79F70E945900ECCF0E94B300E9CF91
:1008800097FB072E16F4009407D077FD09D00E943D
:10089000540407FC05D03EF4909581959F4F089530
:1008A000709561957F4F0895AA1BBB1B51E107C04E
:1008B000AA1FBB1FA617B70710F0A61BB70B881FF0
:1008C000991F5A95A9F780959095BC01CD0108957F
:0408D000F894FFCFCA
:1008D40000006100B700B600300100006100B700FD
:1008E400B600220100000000000000004001B80032
:1008F400000000000000000101004601B800B5003E
:10090400000000000A0101004601B800B500010022
:0C0914004572726F72007573657200000E
:00000001FF
