:100000000C9434000C9451000C9451000C94510049
:100010000C9451000C9451000C94E7010C94D601FF
:100020000C9451000C9451000C9451000C9451000C
:100030000C9451000C9451000C9451000C945100FC
:100040000C9451000C9451000C94CB000C94510072
:100050000C9451000C9421010C9451000C9451000B
:100060000C9451000C94510011241FBECFEFD8E026
:10007000DEBFCDBF11E0A0E0B1E0EEE1F0E102C0F3
:1000800005900D92AA35B107D9F722E0AAE5B1E0B3
:1000900001C01D92A833B207E1F70E94FA040C9444
:1000A0000D080C94000080915C0190915D014096D8
:1000B00020915A0130915B01821B930B60E170E04B
:1000C0000E940D0508959C0180915E0190915F0151
:1000D000019660E170E00E940D0590935F018093AE
:1000E0005E0140915A0150915B018417950771F0B0
:1000F000E0915C01F0915D01EE0FFF1FE05AFE4FB1
:100100003183208390935D0180935C010895009773
:10011000C1F020915A0130915B01F901EE0FFF1FF0
:10012000E05AFE4F40815181FC0151834083C90157
:10013000019660E170E00E940D0590935B01809351
:100140005A0190E080E0089581E88093C40086E041
:100150008093C500E0ECF0E0808182608083E1EC78
:10016000F0E0808188618083808180688083089549
:100170009091C00095FFFCCF8093C6000895CF9367
:10018000DF93EC018991811103C0DF91CF91089534
:100190000E94B800F7CF1F920F920FB60F92112452
:1001A0002F933F934F935F936F937F938F939F937F
:1001B000AF93BF93EF93FF938091C600E091A501A9
:1001C000F091A6010995FF91EF91BF91AF919F9199
:1001D0008F917F916F915F914F913F912F910F90F0
:1001E0000FBE0F901F901895259A559A569A08950C
:1001F00085B190E2892785B908950895ECE7F0E08C
:10020000808180648083808181608083EAE7F0E080
:100210008081866080838081806280838081886025
:1002200080830895EAE7F0E08081806880838081A0
:10023000806480830895EAE7F0E080818F7780838F
:1002400008951F920F920FB60F9211240F900FBEB8
:100250000F901F90189584B5806884BD84B5806226
:1002600084BD84B5816084BD85B5816085BD0895F8
:1002700097BD88BD0895E0EBF0E0808182608083C7
:10028000E1EBF0E080818160808380818260808307
:10029000808184608083E0E7F0E0808182608083F9
:1002A0008BE98093B3000895E0E6F0E080818861F7
:1002B000808386E4808308952091920181E090E01C
:1002C000211102C090E080E00895209190013091CA
:1002D000910181E090E0232B11F490E080E00895FB
:1002E00080919201882359F18091920181508093ED
:1002F000920180918C0190918D01A0918E01B0911D
:100300008F010196A11DB11D80938C0190938D01E9
:10031000A0938E01B0938F0180918401909185010B
:10032000A0918601B09187010196A11DB11D809316
:10033000840190938501A0938601B093870108956D
:100340008091900190919101892B79F18091900198
:1003500090919101019790939101809390018091E8
:10036000880190918901A0918A01B0918B01019639
:10037000A11DB11D8093880190938901A0938A01EA
:10038000B0938B018091800190918101A0918201B5
:10039000B09183010196A11DB11D809380019093BE
:1003A0008101A0938201B093830108951F920F925F
:1003B0000FB60F9211248F93809192018F5F8093DB
:1003C00092018F910F900FBE0F901F9018951F9262
:1003D0000F920FB60F9211248F939F9380919001EB
:1003E00090919101019690939101809390019F913A
:1003F0008F910F900FBE0F901F90189580919501CF
:100400009091960108950E94F4000E942B010E9491
:100410003B010E9454010E944B030E9498020E94DB
:10042000A80287EA91E00E94F4042AE030E040E06C
:1004300050E064E070E090E080E00E94C20283B788
:10044000817F83BF08957894809195019091960162
:10045000892B89F0F89408950E946501892B79F41D
:100460000E945300892B59F483B7816083BF88951C
:1004700083B78E7F83BF0E945C01892B69F30E9442
:1004800065010197D9F40E94A00180919301909198
:1004900094019C012F5F3F4F30939401209393016F
:1004A000049744F00E9487021092940110929301E5
:1004B0000E94F80090E080E00E941A030E945C0114
:1004C000019731F40E94700181E090E00E941A03CC
:1004D0000E945300892B09F4B7CF87EA91E00E946C
:1004E000D603B2CF83B7817F846083BF83B7816037
:1004F00083BF889583B78E7F83BF0895089581E079
:1005000090E09093960180939501089508958091CD
:100510009701909198010E943801809197019091E4
:1005200098018D5B9F4F9093980180939701089558
:1005300081E090E09093AB018093AA0190939C019D
:1005400080939B019093AD018093AC010895089531
:10055000EEEAF1E080E027E030E041E050E0148294
:10056000158216821782338322831086853038F4F1
:10057000118210828F5F39968F3089F708955183E9
:100580004083F8CFCF92DF92EF92FF920F931F93A9
:10059000EEEAF1E0DF0110E000E0ED90FC90119751
:1005A0008E159F05D9F41296ED90FC9013976E1559
:1005B0007F05A1F489E0809FF001819FF00D112457
:1005C000E255FE4F248335834683578310861F915F
:1005D0000F91FF90EF90DF90CF9008950F5F1F4F26
:1005E00019960F301105C9F610E000E0A081B18125
:1005F0008A179B07B9F4C480D580E680F780CD28A0
:10060000CE28CF2879F489E0809FF001819FF00DFA
:100610001124E255FE4F2483358346835783738329
:100620006283D4CF0F5F1F4F39960F301105F1F65B
:10063000CECF08950F931F93CF93DF938C01CEEA13
:10064000D1E08881998180179107D1F48C819D81B7
:10065000AE81BF810097A105B10591F028852111D8
:100660000FC00197A109B1098C839D83AE83BF831D
:10067000892B8A2B8B2B21F48A819B810E9463001A
:10068000299682E0C533D807E1F6DF91CF911F911B
:100690000F9108950895FF920F931F93CF93DF93C7
:1006A000CDB7DEB760970FB6F894DEBF0FBECDBFF3
:1006B0008AE493E00E94A4008E010F5F1F4F80E147
:1006C000F80111928A95E9F789E0F82EE2E0F0E06E
:1006D000F0925700E4911F92EF9389E391E09F938A
:1006E0008F931F930F930E943505C8010E94BF008E
:1006F000E3E0F0E0F0925700E4911F92EF9384E47E
:1007000091E09F938F931F930F930E943505C8012B
:100710000E94BF00F0E0E0E0F0925700F4901F92DA
:10072000FF928FE491E09F938F931F930F930E940A
:100730003505C8010E94BF000FB6F894DEBF0FBE9A
:10074000CDBF60960FB6F894DEBF0FBECDBFDF9170
:10075000CF911F910F91FF900895089590E080E050
:100760000895089590E080E0089590E080E0089575
:1007700090E080E0089590E080E0089590E080E0CF
:10078000089590E080E0089590E080E0089590E082
:1007900080E0089590E080E0089590E080E0089582
:1007A00090E080E0089590E080E00895EF92FF925D
:1007B0000F931F93CF93DF9300D0CDB7DEB77C01AB
:1007C000CE0101960E948700D70111960D911C91D0
:1007D000D801ED91FC91C7010995009779F081301E
:1007E000910561F4F801068117810115110531F0B9
:1007F000D8012D913C91232B39F7F4CF0F900F9016
:10080000DF91CF911F910F91FF90EF9008958F92FC
:100810009F92AF92BF92CF92DF92FF920F931F935E
:10082000CF93DF93CDB7DEB72A970FB6F894DEBF2C
:100830000FBECDBF5C018B01DC0111968D909C90A9
:10084000129712967C936E931197F4018285DB01C7
:100850001A969C91981708F46BC0F12C891708F42C
:1008600079C0D12CC12C1DC0309759F0C501099514
:10087000009739F08230910509F048C0CC24C39428
:10088000D12CF40186809780D4011496ED91FC91CF
:1008900015971A969C91D8011A968C91891720F376
:1008A000F12CD4011496ED91FC91159716962D918B
:1008B0003C91D80116968D919C912817390709F023
:1008C00055C0309751F0C5010995009731F082303D
:1008D0009105E1F4CC24C394D12CD8011296ED916A
:1008E000FC91309751F0C5010995009731F08230A5
:1008F000910561F4CC24C394D12CF11058C082E04E
:1009000090E0CA94CD2811F090E080E02A960FB6CE
:10091000F894DEBF0FBECDBFDF91CF911F910F9135
:10092000FF90DF90CF90BF90AF909F908F900895F1
:10093000D12CC12CA9CFEF2DF0E0EE0FFF1F41E02D
:1009400050E04C0F5D1FE40FF51F11830083F394FB
:10095000032F122FD80116963C91169717962C91BB
:1009600017971A969C91891730F37BCF309751F0E7
:10097000C5010995009731F08230910539F6CC24F4
:10098000C394D12CF40186809780EF2DF0E0EE0F18
:10099000FF1F41E050E04C0F5D1FE40FF51F118376
:1009A0000083D80116960D911C91F3947ACFFA9496
:1009B000EF2DF0E0EE0FFF1F41E050E04C0F5D1F08
:1009C000E40FF51F0190F081E02D0280F381E02D0E
:1009D00088CFFC012081263021F46EE271E00E9474
:1009E000070490E080E0089523E231E0FC013283C7
:1009F000218308950E9403020E94FE018130910527
:100A000049F028F00297C1F70E947E02F5CF0E94BC
:100A10002302F2CF0E947202EFCF97FB072E16F44B
:100A2000009407D077FD09D00E94210507FC05D06E
:100A30003EF4909581959F4F0895709561957F4FF5
:100A40000895AA1BBB1B51E107C0AA1FBB1FA61715
:100A5000B70710F0A61BB70B881F991F5A95A9F767
:100A600080959095BC01CD010895AEE0B0E0EBE338
:100A7000F5E00C94E4070D891E8986E08C831A83C7
:100A800009838FEF9FE79E838D83AE01475E5F4FA3
:100A90006F89788DCE0101960E9458052F81388587
:100AA000020F131FF80110822E96E4E00C94000848
:100AB000ABE0B0E0EEE5F5E00C94D6077C013B013D
:100AC0008A01FC0117821682838181FFC8C1CE0191
:100AD00001965C01F7019381F30193FD859193FFEA
:100AE00081913F01882309F453C1853239F493FD84
:100AF000859193FF81913F01853229F4B70190E000
:100B00000E944807E7CF912C212C312CFFE1F315EF
:100B100038F08B3211F190F4803209F1833229F1EF
:100B200037FC3CC020ED280F2A3050F536FE20C09F
:100B30008AE0989E200D1124922E06C08D3291F0ED
:100B4000803371F7689430F8F30193FD859193FF3A
:100B500081913F018111DACF21C0689431F8689406
:100B600032F8F2CF689433F8EFCF689434F8ECCFD2
:100B7000EAE02E9E200D1124222E689435F8E4CF51
:100B80008E3229F436FC04C1689436F8DDCF8C36F9
:100B900019F4689437F8D8CF8836B1F2982F9F7D32
:100BA00095549330E0F08336A1F18337C1F183355A
:100BB00009F063C02801F2E04F0E511CF801C0801B
:100BC000D180692D70E036FC02C06FEF7FEFC60167
:100BD0000E9432074C01689437F882010AC00C5F0A
:100BE0001F4FFFE3F98388248394912C6501E894D7
:100BF00037F833FE2DC0522C8114910471F5552025
:100C000009F468CFB70180E290E00E9448075A9447
:100C1000F6CFF801808189830E5F1F4FE4CF280152
:100C2000F2E04F0E511CF801C080D180692D70E0B8
:100C300036FC02C06FEF7FEFC6010E943D074C01FA
:100C40008201D5CFB70180E290E00E9448072A9444
:100C50002814190409F0B0F7CECFF60137FC8591BE
:100C600037FE81916F01B70190E00E944807511053
:100C70005A94F1E08F1A9108BFCF843619F0893663
:100C800009F077C0F80137FE6BC060817181828105
:100C900093810C5F1F4FF32DFF763F2E97FF09C006
:100CA00090958095709561957F4F8F4F9F4F689479
:100CB00037F82AE030E0A5010E947807C82ECA184C
:100CC0008C2C432C36FE0CC0E89440F8C91440F438
:100CD00034FE05C032FC03C0F32DFE7E4F2E892C5E
:100CE00044FE95C0FE01EC0DF11D8081803309F0BA
:100CF00087C0242D297E422E842D8870582E43FCD7
:100D000095C040FE8FC09C2C821418F42C0C922CA1
:100D1000981844FE91C0B70180E390E00E94480714
:100D200042FE09C088E790E041FE02C088E590E0FD
:100D3000B7010E944807C91408F48AC0CA94D12C8C
:100D40009FEFC91AD90ACA0CDB1CF60182916F0108
:100D5000B70190E00E944807AC14BD04B1F74FCF33
:100D600060817181072E000C880B990B0E5F1F4F5D
:100D700092CFD32CE894D4F82AE030E0853739F1CB
:100D8000232D297FD22E8F3601F148F48835A9F022
:100D9000F701868197812B96E2E10C94F207803768
:100DA00049F08837A9F7D4FE02C06894D2F820E150
:100DB00030E00DC06894D4F8F6CF34FE03C0822F23
:100DC0008660D82E20E132E002C028E030E0F80151
:100DD000D7FE0FC060817181828193810C5F1F4FAC
:100DE000A5010E947807C82ECA183D2CE89437F850
:100DF00067CF6081718190E080E00E5F1F4FF0CF80
:100E000042FC02C0839478CF8394839475CF842D61
:100E1000867809F471CFF6CFB70180E290E00E94A6
:100E2000480783948214C0F3512C73CF522C581866
:100E3000821408F46ECFF8CF842D867809F47BCF26
:100E40008BE241FE80E247FC8DE2B70190E071CF7A
:100E5000B70180E390E00E9448079A946CCF8FEF2F
:100E60009FEF99CFFC010590615070400110D8F7B9
:100E7000809590958E0F9F1F0895FC0161507040E2
:100E800001900110D8F7809590958E0F9F1F0895BF
:100E90000F931F93CF93DF93182F092FEB018B81B3
:100EA00081FD09C01FEF0FEF812F902FDF91CF91B0
:100EB0001F910F91089582FF14C02E813F818C8174
:100EC0009D81281739073CF4E881F981CF0101960B
:100ED0009983888310838E819F8101969F838E835F
:100EE000E3CFE885F985812F0995892BA1F3DACF26
:100EF000FA01AA27283051F1203181F1E8946F934B
:100F00006E7F6E5F7F4F8F4F9F4FAF4FB1E03ED0F0
:100F1000B4E03CD0670F781F891F9A1FA11D680F8E
:100F2000791F8A1F911DA11D6A0F711D811D911DC1
:100F3000A11D20D009F468943F912AE0269F112436
:100F40003019305D3193DEF6CF010895462F47709A
:100F5000405D4193B3E00FD0C9F7F6CF462F4F70F5
:100F6000405D4A3318F0495D31FD4052419302D053
:100F7000A9F7EACFB4E0A6959795879577956795F9
:100F8000BA95C9F700976105710508959B01AC01F9
:100F90000A2E06945795479537952795BA95C9F720
:100FA000620F731F841F951FA01D08952F923F92FB
:100FB0004F925F926F927F928F929F92AF92BF9269
:100FC000CF92DF92EF92FF920F931F93CF93DF9315
:100FD000CDB7DEB7CA1BDB0B0FB6F894DEBF0FBE72
:100FE000CDBF09942A88398848885F846E847D84BF
:100FF0008C849B84AA84B984C884DF80EE80FD80C1
:101000000C811B81AA81B981CE0FD11D0FB6F89436
:0E101000DEBF0FBECDBFED010895F894FFCFF7
:10101E000100C703B503B1030000000000CA03CDF1
:10102E0003D0030000000000D303B203B803000096
:10103E00000000E904AE03BB030000020100BE0382
:10104E00C103C40300000000006578742E3A202509
:10105E00580D0A00686967683A2025580D0A006C19
:0A106E006F773A2025580D0A0000A4
:00000001FF
