:100000000C9434000C9451000C9451000C94510049
:100010000C9451000C9451000C9451000C9451001C
:100020000C9451000C9451000C9451000C94DC0180
:100030000C9451000C9451000C94CB010C94510081
:100040000C9451000C9451000C9400010C9451003C
:100050000C9451000C9416020C9451000C94510015
:100060000C9451000C94510011241FBECFEFD8E026
:10007000DEBFCDBF11E0A0E0B1E0E6EEF6E002C0E9
:1000800005900D92A231B107D9F721E0A2E1B1E0CC
:1000900001C01D92AD3EB207E1F70E9436030C94F9
:1000A00071030C940000809116019091170108953E
:1000B0008091140190911501089580911201909101
:1000C000130108950E9420020E9429010E943A0112
:1000D0000E941C030E9425030E94790221E030E067
:1000E00040E050E064E070E080E090E00E94930225
:1000F00083B7817F83BF0895789480911601909192
:100100001701892B91F50E945101892B59F00E940A
:100110005A010197B9F40E94950180E090E00E9495
:10012000EB0210C00E945A01892B89F70E94280215
:10013000892B69F783B7816083BF889583B78E7FEA
:1001400083BFE1CF0E945101019741F40E946501F4
:100150000E94240381E090E00E94EB020E942802AA
:10016000892B59F20E94BB00C8CFF89408950895D6
:100170000895FFCFFFCFCF93DF9300D0CDB7DEB789
:10018000CE0101960E945C0289819A81049761F4F4
:100190000E94220221E030E040E050E064E070E0A4
:1001A00080E090E00E9493020F900F90DF91CF913A
:1001B000089581E88093C40086E08093C500E0EC58
:1001C000F0E0808182608083E1ECF0E080818861F2
:1001D000808380818068808308959091C00095FF1E
:1001E000FCCF8093C6000895CF93DF93EC018991F3
:1001F000882319F00E94ED00FACFDF91CF91089586
:100200001F920F920FB60F9211242F933F934F938B
:100210005F936F937F938F939F93AF93BF93EF936E
:10022000FF938091C600E0915D01F0915E01099518
:10023000FF91EF91BF91AF919F918F917F916F91BE
:100240005F914F913F912F910F900FBE0F901F9094
:10025000189584B5826084BD84B5816084BD85B500
:10026000846085BDEEE6F0E08081826080838BE96A
:1002700087BD0895E1E8F0E0808188608083808117
:1002800081608083808184608083EFE6F0E08081FC
:100290008260808388E09DE390938900809388004A
:1002A000089520912A0181E090E0211102C080E0B0
:1002B00090E00895209128013091290181E090E09B
:1002C000232B11F480E090E0089580912A01882387
:1002D00059F180912A01815080932A018091240153
:1002E00090912501A0912601B09127010196A11DB1
:1002F000B11D8093240190932501A0932601B09312
:10030000270180911C0190911D01A0911E01B091C7
:100310001F010196A11DB11D80931C0190931D0129
:10032000A0931E01B0931F01089580912801909120
:100330002901892B79F18091280190912901019758
:1003400090932901809328018091200190912101AF
:10035000A0912201B09123010196A11DB11D8093AE
:10036000200190932101A0932201B0932301809159
:10037000180190911901A0911A01B0911B010196E9
:10038000A11DB11D8093180190931901A0931A012A
:10039000B0931B0108951F920F920FB60F92112474
:1003A0008F9380912A018F5F80932A018F910F9004
:1003B0000FBE0F901F9018951F920F920FB60F92BD
:1003C00011248F939F938091280190912901019688
:1003D00090932901809328019F918F910F900FBED8
:1003E0000F901F901895ECE7F0E080818064808387
:1003F000808181608083EAE7F0E08081866080838D
:100400008081806280838081886080830895EAE7AC
:10041000F0E080818068808380818064808308959B
:10042000EAE7F0E080818F77808308951F920F9232
:100430000FB60F9211240F900FBE0F901F901895BA
:10044000259A089595B180E2892785B90895089580
:1004500080912D0190912E01409620912B01309199
:100460002C01821B930B60E170E00E944903089508
:100470009C0180912F0190913001019660E170E024
:100480000E9449039093300180932F0140912B01EA
:1004900050912C018417950771F0E0912D01F09196
:1004A0002E01EE0FFF1FEF5CFE4F318320839093F0
:1004B0002E0180932D0108950097C1F020912B010A
:1004C00030912C01F901EE0FFF1FEF5CFE4F4081D0
:1004D0005181FC0151834083C901019660E170E0C4
:1004E0000E94490390932C0180932B0180E090E0BF
:1004F0000895EFE5F1E080E026E030E041E050E0F3
:1005000014821582168217823383228310868530E7
:1005100018F41182108202C0518340838F5F399694
:100520008F3071F70895CF92DF92EF92FF920F9381
:100530001F93EFE5F1E0DF0100E010E0ED90FC90AB
:1005400011978E159F05A1F41296ED90FC901397CC
:100550006E157F0569F489E0809FF001819FF00DA1
:100560001124E15AFE4F248335834683578323C0E9
:100570000F5F1F4F19960F30110501F700E010E0D3
:10058000A081B1818A179B07C1F4C480D580E68021
:10059000F780CD28CE28CF2881F489E0809FF00114
:1005A000819FF00D1124E15AFE4F24833583468349
:1005B000578373836283108606C00F5F1F4F39967F
:1005C0000F301105E9F61F910F91FF90EF90DF902A
:1005D000CF90089508950F931F93CF93DF938C01CD
:1005E000CFE5D1E08881998180179107D1F48C8182
:1005F0009D81AE81BF810097A105B10591F028854D
:1006000021110FC00197A109B1098C839D83AE838D
:10061000BF83892B8A2B8B2B21F48A819B810E949B
:100620003802299681E0C63ED807E1F6DF91CF91E6
:100630001F910F91089508958BE193E00E94D900D6
:1006400082E091E00C94F400089581E090E09093B2
:10065000EA018093E90190935401809353019093B0
:10066000EC018093EB0108950C9422020E94620039
:100670000E9453008130910549F028F00297C1F79C
:100680000E94B800F5CF0E947C00F2CF0E94B70014
:10069000EFCF97FB072E16F4009407D077FD09D013
:1006A0000E945D0307FC05D03EF4909581959F4F15
:1006B0000895709561957F4F0895AA1BBB1B51E16A
:1006C00007C0AA1FBB1FA617B70710F0A61BB70BC2
:1006D000881F991F5A95A9F780959095BC01CD0167
:0606E0000895F894FFCF1D
:1006E600010068656C6C6F20776F726C64210D0A6F
:0206F600000002
:00000001FF
