:100000000C9434000C9451000C9451000C94510049
:100010000C9451000C9451000C9451000C9451001C
:100020000C9451000C9451000C9451000C94DB0181
:100030000C9451000C9451000C94CA010C94510082
:100040000C9451000C9451000C94CA000C94510073
:100050000C9451000C941E010C9451000C9451000E
:100060000C9451000C94510011241FBECFEFD8E026
:10007000DEBFCDBF11E0A0E0B1E0E2EDF6E002C0EE
:1000800005900D92A230B107D9F721E0A2E0B1E0CE
:1000900001C01D92AF3DB207E1F70E9426030C9408
:1000A00067030C9400008091040190910501409633
:1000B0002091020130910301821B930B60E170E0FB
:1000C0000E943F0308959C018091060190910701D1
:1000D000019660E170E00E943F03909307018093D6
:1000E000060140910201509103018417950771F0B8
:1000F000E0910401F0910501EE0FFF1FE85FFE4F54
:100100003183208390930501809304010895009723
:10011000C1F02091020130910301F901EE0FFF1FA0
:10012000E85FFE4F40815181FC0151834083C9014A
:10013000019660E170E00E943F0390930301809379
:10014000020180E090E0089587E08093C40010925F
:10015000C500E0ECF0E0808182608083E1ECF0E0BB
:1001600080818861808380818068808308959091F8
:10017000C00095FFFCCF8093C6000895CF93DF9316
:10018000EC018991882319F00E94B700FACFDF9122
:10019000CF9108951F920F920FB60F9211242F93B3
:1001A0003F934F935F936F937F938F939F93AF93FF
:1001B000BF93EF93FF938091C600E0914F01F091C0
:1001C00050010995FF91EF91BF91AF919F918F9150
:1001D0007F916F915F914F913F912F910F900FBE43
:1001E0000F901F901895259A089595B180E2892760
:1001F00085B908950895ECE7F0E0808180648083FC
:10020000808181608083EAE7F0E08081866080837E
:100210008081806280838081886080830895EAE79E
:10022000F0E080818068808380818064808308958D
:10023000EAE7F0E080818F77808308951F920F9224
:100240000FB60F9211240F900FBE0F901F901895AC
:1002500084B5826084BD84B5816084BD85B58460C9
:1002600085BDEEE6F0E08081826080838BE987BD0A
:100270000895E1E8F0E0808188608083808181607A
:100280008083808184608083EFE6F0E080818260FB
:10029000808388E09DE3909389008093880008958F
:1002A00020913A0181E090E0211102C080E090E0CD
:1002B0000895209138013091390181E090E0232B9D
:1002C00011F480E090E0089580913A01882359F17B
:1002D00080913A01815080933A018091340190914C
:1002E0003501A0913601B09137010196A11DB11DD4
:1002F0008093340190933501A0933601B093370178
:1003000080912C0190912D01A0912E01B0912F018F
:100310000196A11DB11D80932C0190932D01A093F6
:100320002E01B0932F0108958091380190913901E9
:10033000892B79F18091380190913901019790933F
:100340003901809338018091300190913101A09161
:100350003201B09133010196A11DB11D809330018E
:1003600090933101A0933201B09333018091280121
:1003700090912901A0912A01B0912B010196A11D14
:10038000B11D8093280190932901A0932A01B09375
:100390002B0108951F920F920FB60F9211248F9385
:1003A00080913A018F5F80933A018F910F900FBE39
:1003B0000F901F9018951F920F920FB60F92112455
:1003C0008F939F938091380190913901019690937A
:1003D0003901809338019F918F910F900FBE0F903C
:1003E0001F90189580E090E0089580E090E00895D7
:1003F00080E090E008950E94F3000E9428010E948E
:1004000039010E94FF020E944A020E945B0225E01D
:1004100030E040E050E066E070E080E090E00E9474
:10042000760283B7817F83BF0895789480913F01DE
:1004300090914001892B51F50E945001892B59F070
:100440000E945901019799F40E94940180E090E084
:100450000E94CE020CC00E945901892B89F783B7F4
:10046000816083BF889583B78E7F83BFE5CF0E946D
:100470005001019741F40E9464010E94030381E04E
:1004800090E00E94CE020E940603D0CFF894089517
:100490000895089581E090E0909352018093510176
:1004A00090934401809343019093540180935301AE
:1004B00008950C94F500E5E5F1E080E027E030E0F8
:1004C00091E041E050E01482158216821782338356
:1004D00022839087853018F41182108202C05183E4
:1004E00040838F5F39968F3071F70895CF92DF92F6
:1004F000EF92FF920F931F93E5E5F1E0DF0100E03B
:1005000010E0ED90FC9011978E159F05A1F41296C6
:10051000ED90FC9013976E157F0569F489E0809F3C
:10052000F001819FF00D1124EB5AFE4F2483358397
:100530004683578323C00F5F1F4F19960F30110555
:1005400001F700E010E0A081B1818A179B07C1F498
:10055000C480D580E680F780CD28CE28CF2881F4CE
:1005600089E0809FF001819FF00D1124EB5AFE4F2E
:10057000248335834683578373836283108606C042
:100580000F5F1F4F39960F301105E9F61F910F913C
:10059000FF90EF90DF90CF90089508950F931F93F1
:1005A000CF93DF938C01C5E5D1E0888199818017D5
:1005B0009107D1F48C819D81AE81BF810097A10507
:1005C000B10591F0288521110FC00197A109B1094A
:1005D0008C839D83AE83BF83892B8A2B8B2B21F445
:1005E0008A819B810E946300299681E0CC3DD807D7
:1005F000E1F6DF91CF911F910F91089508958EEF4D
:1006000092E00C94A4000895FFCFFFCFCF93DF9327
:1006100000D0CDB7DEB7CE0101960E9487009A8345
:10062000898320914D0130914E01232B51F406977F
:1006300041F40E94F50081E090E090934E01809398
:100640004D010F900F90DF91CF9108950E94FB0113
:100650000E94F2018130910579F028F00297C1F7EC
:100660000E944902F5CF0E9415020E94F501892BD4
:1006700079F70E94F801ECCF0E944802E9CF97FB7E
:10068000072E16F4009407D077FD09D00E9453037B
:1006900007FC05D03EF4909581959F4F0895709585
:1006A00061957F4F0895AA1BBB1B51E107C0AA1F8C
:1006B000BB1FA617B70710F0A61BB70B881F991F03
:1006C0005A95A9F780959095BC01CD010895F894AD
:0206D000FFCF5A
:0206D200010025
:00000001FF
