:100000000C9434000C9451000C9451000C94510049
:100010000C9451000C9451000C9451000C9451001C
:100020000C9451000C9451000C9451000C94DB0181
:100030000C9451000C9451000C94CA010C94510082
:100040000C9451000C9451000C94FF000C9451003E
:100050000C9451000C9415020C9451000C94510016
:100060000C9451000C94510011241FBECFEFD8E026
:10007000DEBFCDBF11E0A0E0B1E0E8EEF6E002C0E7
:1000800005900D92A230B107D9F721E0A2E0B1E0CE
:1000900001C01D92AF3DB207E1F70E9431030C94FD
:1000A00072030C94000080E090E0089580E090E0FE
:1000B000089580E090E008950E941F020E942801A8
:1000C0000E9439010E941B030E9420030E947802B3
:1000D00021E030E040E050E064E070E080E090E05B
:1000E0000E94920283B7817F83BF089578948091A4
:1000F000060190910701892B91F50E945001892BEF
:1001000059F00E9459010197B9F40E94940180E0CE
:1001100090E00E94EA0210C00E945901892B89F7E1
:100120000E942702892B69F783B7816083BF889576
:1001300083B78E7F83BFE1CF0E945001019741F4C6
:100140000E9464010E941F0381E090E00E94EA0285
:100150000E942702892B59F20E94B500C8CFF8945B
:10016000089508950895FFCFFFCFCF93DF9300D078
:10017000CDB7DEB7CE0101960E945B0280910801E7
:1001800090910901892B81F489819A81049761F406
:100190000E94210221E030E040E050E064E070E0A5
:1001A00080E090E00E9492020F900F90DF91CF913B
:1001B000089587E08093C4001092C500E0ECF0E061
:1001C000808182608083E1ECF0E0808188618083BF
:1001D00080818068808308959091C00095FFFCCF56
:1001E0008093C6000895CF93DF93EC018991882313
:1001F00019F00E94EC00FACFDF91CF9108951F9281
:100200000F920FB60F9211242F933F934F935F934A
:100210006F937F938F939F93AF93BF93EF93FF93CE
:100220008091C600E0914F01F09150010995FF9136
:10023000EF91BF91AF919F918F917F916F915F915E
:100240004F913F912F910F900FBE0F901F901895D7
:1002500084B5826084BD84B5816084BD85B58460C9
:1002600085BDEEE6F0E08081826080838BE987BD0A
:100270000895E1E8F0E0808188608083808181607A
:100280008083808184608083EFE6F0E080818260FB
:10029000808388E09DE3909389008093880008958F
:1002A00020911C0181E090E0211102C080E090E0EB
:1002B000089520911A0130911B0181E090E0232BD9
:1002C00011F480E090E0089580911C01882359F199
:1002D00080911C01815080931C01809116019091A6
:1002E0001701A0911801B09119010196A11DB11D2E
:1002F0008093160190931701A0931801B0931901F0
:1003000080910E0190910F01A0911001B091110107
:100310000196A11DB11D80930E0190930F01A09332
:100320001001B0931101089580911A0190911B0161
:10033000892B79F180911A0190911B01019790937B
:100340001B0180931A018091120190911301A091D9
:100350001401B09115010196A11DB11D80931201E8
:1003600090931301A0931401B093150180910A0199
:1003700090910B01A0910C01B0910D010196A11D6E
:10038000B11D80930A0190930B01A0930C01B093CF
:100390000D0108951F920F920FB60F9211248F93A3
:1003A00080911C018F5F80931C018F910F900FBE75
:1003B0000F901F9018951F920F920FB60F92112455
:1003C0008F939F9380911A0190911B0101969093B6
:1003D0001B0180931A019F918F910F900FBE0F9078
:1003E0001F901895ECE7F0E0808180648083808125
:1003F00081608083EAE7F0E080818660808380818D
:10040000806280838081886080830895EAE7F0E0DD
:100410008081806880838081806480830895EAE79A
:10042000F0E080818F77808308951F920F920FB63E
:100430000F9211240F900FBE0F901F901895259AC0
:10044000089595B180E2892785B90895089580912E
:100450001F0190912001409620911D0130911E01B5
:10046000821B930B60E170E00E944A0308959C0197
:100470008091210190912201019660E170E00E943B
:100480004A03909322018093210140911D015091D4
:100490001E018417950771F0E0911F01F091200172
:1004A000EE0FFF1FED5DFE4F3183208390932001FF
:1004B00080931F0108950097C1F020911D01309194
:1004C0001E01F901EE0FFF1FED5DFE4F40815181CE
:1004D000FC0151834083C901019660E170E00E94F4
:1004E0004A0390931E0180931D0180E090E00895DF
:1004F000E1E5F1E080E026E030E041E050E0148208
:10050000158216821782338322831086853018F471
:100510001182108202C0518340838F5F39968F30E1
:1005200071F70895CF92DF92EF92FF920F931F938E
:10053000E1E5F1E0DF0100E010E0ED90FC901197C3
:100540008E159F05A1F41296ED90FC9013976E15F1
:100550007F0569F489E0809FF001819FF00D1124EF
:10056000EF5AFE4F248335834683578323C00F5FA2
:100570001F4F19960F30110501F700E010E0A08120
:10058000B1818A179B07C1F4C480D580E680F780CB
:10059000CD28CE28CF2881F489E0809FF001819F6B
:1005A000F00D1124EF5AFE4F248335834683578381
:1005B00073836283108606C00F5F1F4F39960F301A
:1005C0001105E9F61F910F91FF90EF90DF90CF900A
:1005D000089508950F931F93CF93DF938C01C1E586
:1005E000D1E08881998180179107D1F48C819D8118
:1005F000AE81BF810097A105B10591F02885211139
:100600000FC00197A109B1098C839D83AE83BF837D
:10061000892B8A2B8B2B21F48A819B810E943702A4
:10062000299681E0C83DD807E1F6DF91CF911F916F
:100630000F91089508958AE193E00C94D9000895EC
:1006400081E090E09093DC018093DB019093460180
:10065000809345019093DE018093DD0108950C9411
:1006600021020E945C000E9453008130910579F0C4
:1006700028F00297C1F70E94B200F5CF0E947600E1
:100680000E945600892B79F70E945900ECCF0E94F6
:10069000B100E9CF97FB072E16F4009407D077FD41
:1006A00009D00E945E0307FC05D03EF49095819529
:1006B0009F4F0895709561957F4F0895AA1BBB1BAE
:1006C00051E107C0AA1FBB1FA617B70710F0A61B52
:1006D000B70B881F991F5A95A9F780959095BC0173
:0806E000CD010895F894FFCF4D
:0206E80001000F
:00000001FF
