:100000000C9434000C9451000C9451000C94510049
:100010000C9451000C9451000C9451000C9451001C
:100020000C9451000C9451000C9451000C948A01D2
:100030000C9451000C9451000C9479010C945100D3
:100040000C9451000C9451000C9479000C945100C4
:100050000C9451000C94CD000C9451000C94510060
:100060000C9451000C94510011241FBECFEFD8E026
:10007000DEBFCDBF11E0A0E0B1E0E4E2FAE002C0F3
:1000800005900D92AC3DB107D9F723E0ACEDB1E09E
:1000900001C01D92A330B207E1F70E94CF040C9477
:1000A00010050C94000087E08093C4001092C500F6
:1000B000E0ECF0E0808182608083E1ECF0E0808120
:1000C0008861808380818068808308959091C000DA
:1000D00095FFFCCF8093C6000895CF93DF93EC018A
:1000E0008991882319F00E946600FACFDF91CF91A1
:1000F00008951F920F920FB60F9211242F933F93E2
:100100004F935F936F937F938F939F93AF93BF931F
:10011000EF93FF938091C600E0916D02F0916E0223
:100120000995FF91EF91BF91AF919F918F917F9131
:100130006F915F914F913F912F910F900FBE0F9054
:100140001F901895259A089595B180E2892785B961
:1001500008950895ECE7F0E08081806480838081D9
:1001600081608083EAE7F0E080818660808380811F
:10017000806280838081886080830895EAE7F0E070
:100180008081806880838081806480830895EAE72D
:10019000F0E080818F77808308951F920F920FB6D1
:1001A0000F9211240F900FBE0F901F90189584B5D9
:1001B000826084BD84B5816084BD85B5846085BD61
:1001C000EEE6F0E08081826080838BE987BD089550
:1001D000E1E8F0E0808188608083808181608083B5
:1001E000808184608083EFE6F0E08081826080839C
:1001F00088E09DE390938900809388000895209182
:10020000EE0181E090E0211102C080E090E00895CD
:100210002091EC013091ED0181E090E0232B11F46D
:1002200080E090E008958091EE01882359F180915B
:10023000EE0181508093EE018091E8019091E901F7
:10024000A091EA01B091EB010196A11DB11D80932F
:10025000E8019093E901A093EA01B093EB0180914A
:10026000E0019091E101A091E201B091E3010196DA
:10027000A11DB11D8093E0019093E101A093E201E3
:10028000B093E30108958091EC019091ED01892BE9
:1002900079F18091EC019091ED0101979093ED013E
:1002A0008093EC018091E4019091E501A091E60139
:1002B000B091E7010196A11DB11D8093E4019093D7
:1002C000E501A093E601B093E7018091DC019091F4
:1002D000DD01A091DE01B091DF010196A11DB11DEC
:1002E0008093DC019093DD01A093DE01B093DF01E8
:1002F00008951F920F920FB60F9211248F93809141
:10030000EE018F5F8093EE018F910F900FBE0F90E3
:100310001F9018951F920F920FB60F9211248F9372
:100320009F938091EC019091ED0101969093ED01E6
:100330008093EC019F918F910F900FBE0F901F90B3
:10034000189581E090E09093700280936F029093F3
:10035000F2018093F10190937202809371020895EB
:100360000C94A400089582EB91E00C94530008953E
:10037000E6E7F2E080E026E030E041E050E0148281
:10038000158216821782338322831086853018F4F3
:100390001182108202C0518340838F5F39968F3063
:1003A00071F70895CF92DF92EF92FF920F931F9310
:1003B000E6E7F2E0DF0100E010E0ED90FC9011973D
:1003C0008E159F05A1F41296ED90FC9013976E1573
:1003D0007F0569F489E0809FF001819FF00D112471
:1003E000EA58FD4F248335834683578323C00F5F2C
:1003F0001F4F19960F30110501F700E010E0A081A2
:10040000B1818A179B07C1F4C480D580E680F7804C
:10041000CD28CE28CF2881F489E0809FF001819FEC
:10042000F00D1124EA58FD4F24833583468357830A
:1004300073836283108606C00F5F1F4F39960F309B
:100440001105E9F61F910F91FF90EF90DF90CF908B
:10045000089508950F931F93CF93DF938C01C6E700
:10046000D2E08881998180179107D1F48C819D8198
:10047000AE81BF810097A105B10591F028852111BA
:100480000FC00197A109B1098C839D83AE83BF83FF
:10049000892B8A2B8B2B21F48A819B810E946A02F3
:1004A000299682E0CD3FD807E1F6DF91CF911F91E9
:1004B0000F9108958091FD019091FE014096209149
:1004C000FB013091FC01821B930B60E170E00E9404
:1004D000E80408959C018091FF019091000201962B
:1004E00060E170E00E94E804909300028093FF01B5
:1004F0004091FB015091FC018417950771F0E09148
:10050000FD01F091FE01EE0FFF1FEF5FFD4F318304
:1005100020839093FE018093FD0108950097C1F020
:100520002091FB013091FC01F901EE0FFF1FEF5FFD
:10053000FD4F40815181FC0151834083C9010196E7
:1005400060E170E00E94E8049093FC018093FB015D
:1005500080E090E00895FC01808191819383828303
:10056000A481B581B183A083109759F01A96ED91BB
:10057000FC911B97309729F018968D919C911997B3
:1005800009940895CF93DF93FC01EB01892BA9F027
:100590007183608313821282558344838A819B8195
:1005A000892B59F0EA85FB8560E070E080E090E0FF
:1005B00009950A80DB81C02DF1CFDF91CF9108959D
:1005C0008F929F92AF92BF92CF92DF92EF92FF9263
:1005D0000F931F93CF93DF93009709F4A5C0611584
:1005E000710509F4A1C07B018C01DC01CD91DC9186
:1005F000209729F4B701C8010E94AB029BC08E81ED
:100600009F81892B01F582E090E099C0CC80DD804C
:10061000C80CD91CF60120813181D7018D919C91A4
:1006200028173907A9F0BFEFAB1ABB0AEAE08E0E14
:10063000911C8E819F81A816B90640F30990D8813C
:10064000C02D209701F3812C912CA12CB12CF1CF3E
:10065000D6010480F581E02D309741F0B701129664
:100660008D919C91139709958823E9F2C114D104C7
:1006700029F3F601C085D185209709F4BBCF8A8183
:100680009B81009711F0EC01FACFF801A081B181B4
:10069000CA17DB0761F01C96ED91FC911D9730970E
:1006A00031F0B70118968D919C9119970995D60153
:1006B0001696ED91FC911797309761F04885598512
:1006C000D8018D919C91B701DC0118968D919C9178
:1006D00019970995F80180819181C817D90741F0D0
:1006E000EA85FB85309721F0B701888599850995C2
:1006F000D8018D919C91119713969C938E9312978C
:100700001196DC93CE93C817D90789F014968D9172
:100710009C911597C817D90769F08E819F81892B05
:1007200061F080E090E00BC08EEF9FEF08C081E0A9
:1007300090E005C08FEF9FEF02C083E090E0DF9173
:10074000CF911F910F91FF90EF90DF90CF90BF90CE
:10075000AF909F908F900895009721F0FC018081C9
:100760009181089580E090E00895009721F0FC01C8
:1007700082819381089580E090E00895009751F080
:10078000DC01ED91FC9181E026813781232B19F06A
:1007900080E0089581E0089580E090E0089580E091
:1007A00090E0089580E090E008950E94A2000E94E9
:1007B000D7000E94E8000E94B3010E94A1010E949C
:1007C000B8010E949E0489E791E00E946D0021E03B
:1007D00030E040E050E064E070E080E090E00E94B3
:1007E000D20183B7817F83BF0895789480912502D9
:1007F00090912602892B91F50E94FF00892B59F0D8
:100800000E9408010197B9F40E94430180E090E042
:100810000E942A0210C00E940801892B89F70E94B9
:100820005A02892B69F783B7816083BF889583B7A4
:100830008E7F83BFE1CF0E94FF00019741F40E94A9
:1008400013010E94B70181E090E00E942A020E94F9
:100850005A02892B59F20E94A604C8CFF894089531
:1008600008950895089508950895CF93DF93EC01B6
:1008700089E891E00E946D00CE010E946D0086E83B
:1008800091E0DF91CF910C946D00CF93DF93EC0159
:1008900080E991E00E946D00CE010E946D0086E823
:1008A00091E0DF91CF910C946D000F931F93CF9344
:1008B000DF938C01EA0188E991E00E946D00C80194
:1008C0000E946D0081EA91E00E946D00CE010E94BD
:1008D0006D0086E891E0DF91CF911F910F910C940C
:1008E0006D000F931F93CF93DF938C01FB01C281A7
:1008F000D38186EA91E00E946D0089819A810E94ED
:100900006D0086E891E00E946D002881022E000CA7
:10091000330B81E00217130709F080E0DF91CF91DC
:100920001F910F91089580E00895089580E0089543
:1009300008950895089508950895089547E252E0AE
:1009400068E671E08DEF92E00C94C202CF93DF93E2
:10095000CDB7DEB727970FB6F894DEBF0FBECDBF79
:100960001A8219828091760190917701A091780185
:100970008D839E83AF83CE0105969C838B83BE01BE
:100980006F5F7F4F8DEF92E00E94E00227960FB6D7
:10099000F894DEBF0FBECDBFDF91CF9108950E94C6
:1009A000D5030E94CC038130910579F028F002979D
:1009B000C1F70E943104F5CF0E94F5030E94CF03D6
:1009C000892B79F70E94D203ECCF0E943004E9CF43
:1009D00097FB072E16F4009407D077FD09D00E94EC
:1009E000FC0407FC05D03EF4909581959F4F089537
:1009F000709561957F4F0895AA1BBB1B51E107C0FD
:100A0000AA1FBB1FA617B70710F0A61BB70B881F9E
:100A1000991F5A95A9F780959095BC01CD0108952D
:040A2000F894FFCF78
:100A240001000000300034043304350200003000BB
:100A34003404330443020000300093049804510248
:100A440000003000930498045F0200003000960414
:100A54009504680100003000710455045A01000037
:100A6400000002010200B9019A04320400000000EF
:100A740016010200C9019D04990400003E012A01E7
:100A84000100CE019B049C0400004C0134010100D0
:100A9400D6014504350430AE0173797374656D2055
:100AA40072656164792E0D0A00657869743A2000D4
:100AB400656E7472793A2000616374696F6E3A20CE
:100AC40000202D3E200067756172643A200065762F
:100AD400656E74206F6E6521007365727669636557
:100AE4002074696D656F75740069646C6500736565
:0C0AF4007276696365007573657200001E
:00000001FF
