:100000000C9434000C9451000C9451000C94510049
:100010000C9451000C9451000C9451000C9451001C
:100020000C9451000C9451000C9451000C94F90163
:100030000C9451000C9451000C94E8010C94510064
:100040000C9451000C9451000C941D010C9451001F
:100050000C9451000C9433020C9451000C945100F8
:100060000C9451000C94510011241FBECFEFD8E026
:10007000DEBFCDBF11E0A0E0B1E0E0E2F7E002C0FA
:1000800005900D92A233B107D9F722E0A2E3B1E0C7
:1000900001C01D92AC30B207E1F70E9453030C94EB
:1000A0008E030C94000080913201909133010895E9
:1000B0000E943D020E9446010E9457010E9439039E
:1000C0000E9442030E94960289E791E00E94F0009C
:1000D00022E030E040E050E064E070E080E090E05A
:1000E0000E94B00283B7817F83BF08957894809186
:1000F000320190913301892BA1F50E946E01892B69
:1001000059F00E9477010197B9F40E94B20180E092
:1001100090E00E94080310C00E947701892B89F7A4
:100120000E944502892B69F783B7816083BF889558
:1001300083B78E7F83BFE1CF0E946E01019741F4A8
:100140000E9482010E94410381E090E00E94080326
:100150000E944502892B59F289E791E00E94CE0066
:10016000C6CFF89408950895089580E090E008952A
:10017000089580E090E0089580E090E0089580E0A8
:1001800090E0089580E090E0089580E090E0089588
:1001900080E090E0089580E090E008950F931F9331
:1001A000CF93DF9300D0CDB7DEB78C01CE0101969F
:1001B0000E947902D8011196ED91FC91129701905D
:1001C000F081E02DC8010995892B11F40E943F02AE
:1001D0000F900F90DF91CF911F910F910895089587
:1001E00022E031E0FC0132832183089581E880938D
:1001F000C40086E08093C500E0ECF0E0808182607E
:100200008083E1ECF0E08081886180838081806878
:10021000808308959091C00095FFFCCF8093C60025
:100220000895CF93DF93EC018991882319F00E9400
:100230000A01FACFDF91CF9108951F920F920FB666
:100240000F9211242F933F934F935F936F937F935C
:100250008F939F93AF93BF93EF93FF938091C600CB
:10026000E0917C01F0917D010995FF91EF91BF91A3
:10027000AF919F918F917F916F915F914F913F913E
:100280002F910F900FBE0F901F90189584B582602C
:1002900084BD84B5816084BD85B5846085BDEEE68E
:1002A000F0E08081826080838BE987BD0895E1E87A
:1002B000F0E080818860808380818160808380819C
:1002C00084608083EFE6F0E080818260808388E054
:1002D0009DE39093890080938800089520914601C2
:1002E00081E090E0211102C080E090E0089520912B
:1002F00044013091450181E090E0232B11F480E02E
:1003000090E0089580914601882359F1809146013B
:100310008150809346018091400190914101A091CC
:100320004201B09143010196A11DB11D809340018E
:1003300090934101A0934201B09343018091380111
:1003400090913901A0913A01B0913B010196A11D14
:10035000B11D8093380190933901A0933A01B09375
:100360003B0108958091440190914501892B79F1D9
:1003700080914401909145010197909345018093AC
:10038000440180913C0190913D01A0913E01B091CA
:100390003F010196A11DB11D80933C0190933D0149
:1003A000A0933E01B0933F018091340190913501BB
:1003B000A0913601B09137010196A11DB11D809326
:1003C000340190933501A0933601B093370108951D
:1003D0001F920F920FB60F9211248F9380914601B6
:1003E0008F5F809346018F910F900FBE0F901F90EB
:1003F00018951F920F920FB60F9211248F939F930F
:10040000809144019091450101969093450180931C
:1004100044019F918F910F900FBE0F901F901895E0
:10042000ECE7F0E08081806480838081816080835C
:10043000EAE7F0E08081866080838081806280834B
:100440008081886080830895EAE7F0E08081806899
:1004500080838081806480830895EAE7F0E0808172
:100460008F77808308951F920F920FB60F921124F9
:100470000F900FBE0F901F901895259A089595B173
:1004800080E2892785B90895089580914901909166
:100490004A0140962091470130914801821B930BFD
:1004A00060E170E00E94660308959C0180914B0119
:1004B00090914C01019660E170E00E946603909378
:1004C0004C0180934B0140914701509148018417A2
:1004D000950771F0E0914901F0914A01EE0FFF1F7D
:1004E000E35BFE4F3183208390934A01809349015F
:1004F00008950097C1F02091470130914801F9011A
:10050000EE0FFF1FE35BFE4F40815181FC015183E1
:100510004083C901019660E170E00E9466039093F8
:1005200048018093470180E090E00895EEE7F1E014
:1005300080E027E030E041E050E01482158216822E
:100540001782338322831086853018F4118210823B
:1005500002C0518340838F5F39968F3071F70895C1
:10056000CF92DF92EF92FF920F931F93EEE7F1E0AD
:10057000DF0100E010E0ED90FC9011978E159F05D3
:10058000A1F41296ED90FC9013976E157F0569F417
:1005900089E0809FF001819FF00D1124E258FE4F09
:1005A000248335834683578323C00F5F1F4F1996DB
:1005B0000F30110501F700E010E0A081B1818A172A
:1005C0009B07C1F4C480D580E680F780CD28CE2873
:1005D000CF2881F489E0809FF001819FF00D1124E4
:1005E000E258FE4F248335834683578373836283A7
:1005F000108606C00F5F1F4F39960F301105E9F6C0
:100600001F910F91FF90EF90DF90CF900895089584
:100610000F931F93CF93DF938C01CEE7D1E08881B6
:10062000998180179107D1F48C819D81AE81BF8122
:100630000097A105B10591F0288521110FC0019700
:10064000A109B1098C839D83AE83BF83892B8A2B3B
:100650008B2B21F48A819B810E945502299682E08E
:10066000C530D807E1F6DF91CF911F910F91089522
:10067000089588E393E00E94F60083E291E00C94F1
:100680001101089581E090E090930902809308029F
:100690009093700180936F0190930B0280930A02F4
:1006A00008950C943F020E9458000E94530081302C
:1006B000910549F028F00297C1F70E94B400F5CFE8
:1006C0000E947600F2CF0E94B300EFCF97FB072E77
:1006D00016F4009407D077FD09D00E947A0307FC36
:1006E00005D03EF4909581959F4F08957095619542
:1006F0007F4F0895AA1BBB1B51E107C0AA1FBB1F58
:10070000A617B70710F0A61BB70B881F991F5A959D
:10071000A9F780959095BC01CD010895F894FFCF7D
:100720000100BC00B500BF000000000000C200C511
:1007300000C8000000000000CB00B900B8000000B5
:1007400000000068656C6C6F20776F726C64210D1F
:020750000A009D
:00000001FF
