:100000000C9434000C9451000C9451000C94510049
:100010000C9451000C9451000C9451000C9451001C
:100020000C9451000C9451000C9451000C9421023A
:100030000C9451000C9451000C9410020C9451003B
:100040000C9451000C9451000C94D0000C9451006D
:100050000C9451000C9443010C9451000C945100E9
:100060000C9451000C94510011241FBECFEFD8E026
:10007000DEBFCDBF11E0A0E0B1E0E8E4F8E002C0EF
:1000800005900D92A231B107D9F721E0A2E1B1E0CC
:1000900001C01D92A43FB207E1F70E94B7030C9480
:1000A00022040C9400000895809114019091150190
:1000B00040962091120130911301821B930B60E155
:1000C00070E00E94D00308959C01809116019091E8
:1000D0001701019660E170E00E94D0039093170130
:1000E00080931601409112015091130184179507D6
:1000F00071F0E0911401F0911501EE0FFF1FE85E21
:10010000FE4F31832083909315018093140108954D
:100110000097C1F02091120130911301F901EE0F07
:10012000FF1FE85EFE4F40815181FC0151834083F7
:10013000C901019660E170E00E94D0039093130121
:100140008093120190E080E0089587E08093C400DE
:100150001092C500E0ECF0E0808182608083E1ECE9
:10016000F0E0808188618083808180688083089549
:10017000909363018093620108959091C00095FF70
:10018000FCCF8093C6000895CF93DF93EC01899153
:10019000811103C0DF91CF9108950E94BD00F7CF78
:1001A0001F920F920FB60F9211242F933F934F93EC
:1001B0005F936F937F938F939F93AF93BF93EF93CF
:1001C000FF938091C600E0916201F091630109956F
:1001D000FF91EF91BF91AF919F918F917F916F911F
:1001E0005F914F913F912F910F900FBE0F901F90F5
:1001F00018958CE08093B800ECEBF0E0808184608F
:1002000080830895089508950895259A08952D9A54
:100210008FE891E00197F1F700C000002D98089554
:100220000895ECE7F0E080818064808380818068BD
:100230008083808188608083EAE7F0E08081846049
:1002400080838081826080838081816080838081DF
:1002500080628083808188608083808180688083E1
:100260000895EAE7F0E080818F7780830895909386
:100270006501809364010895EAE7F0E0808180647D
:100280008083089508951F920F920FB60F92112444
:100290002F933F934F935F936F937F938F939F938E
:1002A000AF93BF93EF93FF93809178009091790083
:1002B000E0916401F09165010995FF91EF91BF9183
:1002C000AF919F918F917F916F915F914F913F91EE
:1002D0002F910F900FBE0F901F90189584B58260DC
:1002E00084BD85B5816085BD85B5846085BDEEE63C
:1002F000F0E08081826080838BE987BD0895E1E82A
:10030000F0E080818860808380818160808380814B
:1003100084608083EFE6F0E080818260808388E003
:100320009DE39093890080938800089520914A016D
:1003300081E090E0211102C090E080E008952091DA
:1003400048013091490181E090E0232B11F490E0C5
:1003500080E0089580914A01882359F180914A01F3
:10036000815080934A018091440190914501A09170
:100370004601B09147010196A11DB11D8093440132
:1003800090934501A0934601B093470180913C01B1
:1003900090913D01A0913E01B0913F010196A11DB8
:1003A000B11D80933C0190933D01A0933E01B09319
:1003B0003F0108958091480190914901892B79F17D
:1003C0008091480190914901019790934901809350
:1003D00048018091400190914101A0914201B0916A
:1003E00043010196A11DB11D8093400190934101ED
:1003F000A0934201B093430180913801909139015B
:10040000A0913A01B0913B010196A11DB11D8093CD
:10041000380190933901A0933A01B0933B010895BC
:100420001F920F920FB60F9211248F9380914A0161
:100430008F5F80934A018F910F900FBE0F901F9096
:1004400018951F920F920FB60F9211248F939F93BE
:1004500080914801909149010196909349018093C0
:1004600048019F918F910F900FBE0F901F9018958C
:1004700090E080E0089590E080E0089590E080E0D2
:1004800008950E9405010E9411010E946E010E94C0
:100490007F010E948B030E9492020E94A8020E9488
:1004A000E80283B7817F83BF0895789480914F01DC
:1004B00090915001892B89F0F89408950E949F0132
:1004C000892B79F40E945400892B59F483B78160F9
:1004D00083BF889583B78E7F83BF0E949601892B47
:1004E00069F30E949F01019741F40E94DA010E9482
:1004F0008F0390E080E00E945A030E9496010197CA
:1005000041F40E94AA010E94A10281E090E00E94B1
:100510005A030E945400892B49F20E949503C6CFCA
:100520000895089581E090E09093670180936601BB
:1005300090935701809356019093690180936801CD
:1005400008950C94070190935301809352010895EC
:1005500083EA92E00C9437010895089508950F936B
:100560001F93CF93DF93CDB7DEB72A970FB6F894DA
:10057000DEBF0FBECDBF8E010F5F1F4F8AE0F801B7
:1005800011928A95E9F78091510191E0980F883C8A
:1005900069F0909351012A960FB6F894DEBF0FBE12
:1005A000CDBFDF91CF911F910F910895109251010E
:1005B0004AE0B80180915201909153010E94F803E2
:1005C000C8010E94C4008EE091E00E94C400E3CF05
:1005D000EAE6F1E080E026E030E041E050E014821D
:1005E000158216821782338322831086853038F471
:1005F000118210828F5F39968F3089F70895518369
:100600004083F8CFCF92DF92EF92FF920F931F9328
:10061000EAE6F1E0DF0110E000E0ED90FC901197D8
:100620008E159F05D9F41296ED90FC9013976E15D8
:100630007F05A1F489E0809FF001819FF00D1124D6
:10064000E659FE4F248335834683578310861F91D6
:100650000F91FF90EF90DF90CF9008950F5F1F4FA5
:1006600019960F301105C9F610E000E0A081B181A4
:100670008A179B07B9F4C480D580E680F780CD281F
:10068000CE28CF2879F489E0809FF001819FF00D7A
:100690001124E659FE4F24833583468357837383A1
:1006A0006283D4CF0F5F1F4F39960F301105F1F6DB
:1006B000CECF08950F931F93CF93DF938C01CAE69B
:1006C000D1E08881998180179107D1F48C819D8137
:1006D000AE81BF810097A105B10591F02885211158
:1006E0000FC00197A109B1098C839D83AE83BF839D
:1006F000892B8A2B8B2B21F48A819B810E94640099
:10070000299681E0C13FD807E1F6DF91CF911F9193
:100710000F91089508958AE893E00C94A50082E073
:1007200091E00C94C400FFCFFFCFCF93DF9300D0B4
:10073000CDB7DEB7CE0101960E948800809160019E
:1007400090916101892B71F489819A81049751F408
:1007500021E030E040E050E064E070E090E080E0D4
:100760000E9402030F900F90DF91CF9108950E9495
:1007700041020E9438028130910579F028F00297F9
:10078000C1F70E949102F5CF0E9455020E943B02E0
:10079000892B79F70E943E02ECCF0E949002E9CFAC
:1007A00097FB072E16F4009407D077FD09D00E941E
:1007B000E40307FC05D03EF4909581959F4F089582
:1007C000709561957F4F0895AA1BBB1B51E107C02F
:1007D000AA1FBB1FA617B70710F0A61BB70B881FD1
:1007E000991F5A95A9F780959095BC01CD01089560
:1007F000BB27FB015527AA27880F991FAA1FA417FB
:1008000010F0A41B83955051B9F7A05DAA3308F0EE
:10081000A95DA193009779F7B111B1931192CB0122
:100820000C941204DC01FC01672F71917723E1F72E
:10083000329704C07C916D9370836291AE17BF07AD
:08084000C8F30895F894FFCFFE
:10084800010068656C6C6F20776F726C64210D0A0B
:0208580000009E
:00000001FF
