:100000000C9434000C9451000C9451000C94510049
:100010000C9451000C9451000C9451000C9451001C
:100020000C9451000C9451000C9451000C946403F6
:100030000C9451000C9451000C9453030C945100F7
:100040000C9451000C9451000C9488020C945100B3
:100050000C9451000C949E030C9451000C9451008C
:100060000C9451000C94510011241FBECFEFD8E026
:10007000DEBFCDBF11E0A0E0B1E0EAEFF9E002C0E1
:1000800005900D92A639B107D9F722E0A6E9B1E0B3
:1000900001C01D92A737B207E1F70E94BA040C9481
:1000A000FB040C94000080E090E0089580E090E074
:1000B000089580E090E008950E94A8030E94B10294
:1000C0000E94C2020E94A4040E94A9040E9401048A
:1000D0000E94240183E491E00E947C0221E030E050
:1000E00040E050E064E070E080E090E00E941B049B
:1000F00083B7817F83BF0895CF93DF9300D0CDB7BF
:10010000DEB7789480919A0190919B01892BB1F58B
:100110000E94D902892B59F00E94E2020197B9F49A
:100120000E941D0380E090E00E94730410C00E94B2
:10013000E202892B89F70E94B003892B69F783B704
:10014000816083BF889583B78E7F83BFE1CF0E9494
:10015000D902019741F40E94ED020E94A80481E0B7
:1001600090E00E9473040E94B003892B59F2CE01E3
:1001700001960E94E4030E942C01C4CFF8940F90D2
:100180000F90DF91CF91089508950895CF93DF9355
:10019000EC0183E591E00E947C02CE010E947C028A
:1001A00080E591E0DF91CF910C947C02CF93DF93B7
:1001B000EC018BE591E00E947C02CE010E947C0262
:1001C00080E591E0DF91CF910C947C020F931F9317
:1001D000CF93DF938C01EA0182E691E00E947C02DA
:1001E000C8010E947C028BE691E00E947C02CE0155
:1001F0000E947C0280E591E0DF91CF911F910F91E9
:100200000C947C020F931F93CF93DF938C01FB011F
:10021000C281D38180E791E00E947C0289819A812A
:100220000E947C0280E591E00E947C022881022EDF
:10023000000C330B81E00217130709F080E0DF9117
:10024000CF911F910F91089544E151E060E371E077
:1002500081EE91E00C946C01CF93DF93CDB7DEB7C4
:1002600027970FB6F894DEBF0FBECDBF1A82198252
:100270008091400190914101A09142018D839E8324
:10028000AF83CE0105969C838B83BE016F5F7F4F4A
:1002900081EE91E00E94760127960FB6F894DEBFBA
:1002A0000FBECDBFDF91CF910895FC018081918178
:1002B00093838283A481B581B183A083109759F081
:1002C0001A96ED91FC911B97309729F018968D9115
:1002D0009C91199709940895FC01892B31F0718341
:1002E0006083138212825583448308958F929F9274
:1002F000AF92BF92CF92DF92EF92FF920F931F9334
:10030000CF93DF93009709F4A5C06115710509F437
:10031000A1C07B018C01DC01CD91DC91209729F4F7
:10032000B701C8010E9455019BC08E819F81892B16
:1003300001F582E090E099C0CC80DD80C80CD91C2A
:10034000F60120813181D7018D919C9128173907C1
:10035000A9F0BFEFAB1ABB0AEAE08E0E911C8E81AA
:100360009F81A816B90640F30990D881C02D209727
:1003700001F3812C912CA12CB12CF1CFD60104805A
:10038000F581E02D309741F0B70112968D919C9147
:10039000139709958823E9F2C114D10429F3F601D2
:1003A000C085D185209709F4BBCF8A819B810097B6
:1003B00011F0EC01FACFF801A081B181CA17DB0777
:1003C00061F01C96ED91FC911D97309731F0B701CB
:1003D00018968D919C9119970995D6011696ED91D5
:1003E000FC911797309761F048855985D8018D9118
:1003F0009C91B701DC0118968D919C9119970995F4
:10040000F80180819181C817D90741F0EA85FB8501
:10041000309721F0B701888599850995D8018D918C
:100420009C91119713969C938E9312971196DC933F
:10043000CE93C817D90789F014968D919C91159782
:10044000C817D90769F08E819F81892B61F080E000
:1004500090E00BC08EEF9FEF08C081E090E005C0F8
:100460008FEF9FEF02C083E090E0DF91CF911F916B
:100470000F91FF90EF90DF90CF90BF90AF909F9043
:100480008F900895009721F0FC018081918108955B
:1004900080E090E00895009721F0FC018281938133
:1004A000089580E090E00895009751F0DC01ED910F
:1004B000FC9181E026813781232B19F080E008959B
:1004C00081E0089587E08093C4001092C500E0ECBD
:1004D000F0E0808182608083E1ECF0E080818861DF
:1004E000808380818068808308959091C00095FF0B
:1004F000FCCF8093C6000895CF93DF93EC018991E0
:10050000882319F00E947502FACFDF91CF910895E8
:100510001F920F920FB60F9211242F933F934F9378
:100520005F936F937F938F939F93AF93BF93EF935B
:10053000FF938091C600E091E701F091E8010995F1
:10054000FF91EF91BF91AF919F918F917F916F91AB
:100550005F914F913F912F910F900FBE0F901F9081
:10056000189584B5826084BD84B5816084BD85B5ED
:10057000846085BDEEE6F0E08081826080838BE957
:1005800087BD0895E1E8F0E0808188608083808104
:1005900081608083808184608083EFE6F0E08081E9
:1005A0008260808388E09DE3909389008093880037
:1005B00008952091AE0181E090E0211102C080E019
:1005C00090E008952091AC013091AD0181E090E080
:1005D000232B11F480E090E008958091AE018823F0
:1005E00059F18091AE0181508093AE018091A801B4
:1005F0009091A901A091AA01B091AB010196A11D12
:10060000B11D8093A8019093A901A093AA01B09372
:10061000AB018091A0019091A101A091A201B091A4
:10062000A3010196A11DB11D8093A0019093A1018A
:10063000A093A201B093A30108958091AC01909181
:10064000AD01892B79F18091AC019091AD010197B9
:100650009093AD018093AC018091A4019091A5018C
:10066000A091A601B091A7010196A11DB11D809393
:10067000A4019093A501A093A601B093A701809136
:100680009C0190919D01A0919E01B0919F010196C6
:10069000A11DB11D80939C0190939D01A0939E018B
:1006A000B0939F0108951F920F920FB60F921124DD
:1006B0008F938091AE018F5F8093AE018F910F90E9
:1006C0000FBE0F901F9018951F920F920FB60F92AA
:1006D00011248F939F938091AC019091AD0101966D
:1006E0009093AD018093AC019F918F910F900FBEBD
:1006F0000F901F901895ECE7F0E080818064808374
:10070000808181608083EAE7F0E080818660808379
:100710008081806280838081886080830895EAE799
:10072000F0E0808180688083808180648083089588
:10073000EAE7F0E080818F77808308951F920F921F
:100740000FB60F9211240F900FBE0F901F901895A7
:10075000259A089595B180E2892785B9089508956D
:100760008091B1019091B20140962091AF013091FA
:10077000B001821B930B60E170E00E94D3040895E6
:100780009C018091B3019091B401019660E170E009
:100790000E94D3049093B4018093B3014091AF01C0
:1007A0005091B0018417950771F0E091B101F0917B
:1007B000B201EE0FFF1FEB54FE4F31832083909365
:1007C000B2018093B10108950097C1F02091AF016B
:1007D0003091B001F901EE0FFF1FEB54FE4F408145
:1007E0005181FC0151834083C901019660E170E0B1
:1007F0000E94D3049093B0018093AF0180E090E019
:100800000895E9EEF1E080E026E030E041E050E0DC
:1008100014821582168217823383228310868530D4
:1008200018F41182108202C0518340838F5F399681
:100830008F3071F70895CF92DF92EF92FF920F936E
:100840001F93E9EEF1E0DF0100E010E0ED90FC9095
:1008500011978E159F05A1F41296ED90FC901397B9
:100860006E157F0569F489E0809FF001819FF00D8E
:100870001124E751FE4F248335834683578323C0D9
:100880000F5F1F4F19960F30110501F700E010E0C0
:10089000A081B1818A179B07C1F4C480D580E6800E
:1008A000F780CD28CE28CF2881F489E0809FF00101
:1008B000819FF00D1124E751FE4F24833583468339
:1008C000578373836283108606C00F5F1F4F39966C
:1008D0000F301105E9F61F910F91FF90EF90DF9017
:1008E000CF90089508950F931F93CF93DF938C01BA
:1008F000C9EED1E08881998180179107D1F48C816C
:100900009D81AE81BF810097A105B10591F0288539
:1009100021110FC00197A109B1098C839D83AE837A
:10092000BF83892B8A2B8B2B21F48A819B810E9488
:10093000C003299682E0C037D807E1F6DF91CF9156
:100940001F910F910895089583EA94E00C94620238
:10095000089581E090E090937402809373029093E5
:10096000D8018093D7019093760280937502089501
:100970000C94AA030E945C000E94530081309105F0
:1009800079F028F00297C1F70E94C500F5CF0E94C8
:100990007C000E945600892B79F70E945900ECCF09
:1009A0000E94C400E9CF97FB072E16F4009407D0ED
:1009B00077FD09D00E94E70407FC05D03EF490952E
:1009C00081959F4F0895709561957F4F0895AA1B5B
:1009D000BB1B51E107C0AA1FBB1FA617B70710F02A
:1009E000A61BB70B881F991F5A95A9F7809590955C
:0A09F000BC01CD010895F894FFCF7B
:1009FA00000030000201E600300100003000020170
:100A0A00E600220100000000000000008301C60089
:100A1A00000000000000000101008901C600D600A4
:100A2A00000000000A0101009101C600D600010081
:100A3A0030780173797374656D2072656164792EFB
:100A4A000D0A00656E7472793A2000657869743A05
:100A5A002000616374696F6E3A2000202D3E2000E9
:100A6A0067756172643A20006576656E74206F6EF0
:100A7A006521004572726F720073657276696365EB
:060A8A00007573657200A7
:00000001FF
