:100000000C9434000C9451000C9451000C94510049
:100010000C9451000C9451000C9451000C9451001C
:100020000C9451000C9451000C9451000C94DC0180
:100030000C9451000C9451000C94CB010C94510081
:100040000C9451000C9451000C94CB000C94510072
:100050000C9451000C941F010C9451000C9451000D
:100060000C9451000C94510011241FBECFEFD8E026
:10007000DEBFCDBF11E0A0E0B1E0E2E3F9E002C0F5
:1000800005900D92A834B107D9F722E0A8E4B1E0B9
:1000900001C01D92A232B207E1F70E945C040C94E9
:1000A00097040C94000080914A0190914B01409676
:1000B0002091480130914901821B930B60E170E06F
:1000C0000E946F0408959C0180914C0190914D0114
:1000D000019660E170E00E946F0490934D0180935F
:1000E0004C0140914801509149018417950771F0E6
:1000F000E0914A01F0914B01EE0FFF1FE25BFE4FD2
:100100003183208390934B0180934A010895009797
:10011000C1F02091480130914901F901EE0FFF1F14
:10012000E25BFE4F40815181FC0151834083C90154
:10013000019660E170E00E946F0490934901809302
:10014000480180E090E0089581E88093C40086E053
:100150008093C500E0ECF0E0808182608083E1EC78
:10016000F0E0808188618083808180688083089549
:100170009091C00095FFFCCF8093C6000895CF9367
:10018000DF93EC018991882319F00E94B800FACF1F
:10019000DF91CF9108951F920F920FB60F92112405
:1001A0002F933F934F935F936F937F938F939F937F
:1001B000AF93BF93EF93FF938091C600E0918F01BF
:1001C000F09190010995FF91EF91BF91AF919F91AF
:1001D0008F917F916F915F914F913F912F910F90F0
:1001E0000FBE0F901F901895259A089595B180E243
:1001F000892785B908950895ECE7F0E0808180644F
:100200008083808181608083EAE7F0E0808186607E
:10021000808380818062808380818860808308956C
:10022000EAE7F0E080818068808380818064808359
:100230000895EAE7F0E080818F77808308951F9228
:100240000F920FB60F9211240F900FBE0F901F90B8
:10025000189584B5826084BD84B5816084BD85B500
:10026000846085BDEEE6F0E08081826080838BE96A
:1002700087BD0895E1E8F0E0808188608083808117
:1002800081608083808184608083EFE6F0E08081FC
:100290008260808388E09DE390938900809388004A
:1002A00008952091800181E090E0211102C080E05A
:1002B00090E0089520917E0130917F0181E090E0EF
:1002C000232B11F480E090E0089580918001882331
:1002D00059F18091800181508093800180917A0151
:1002E00090917B01A0917C01B0917D010196A11DAF
:1002F000B11D80937A0190937B01A0937C01B09310
:100300007D018091720190917301A0917401B0916F
:1003100075010196A11DB11D809372019093730127
:10032000A0937401B0937501089580917E0190911E
:100330007F01892B79F180917E0190917F01019756
:1003400090937F0180937E01809176019091770157
:10035000A0917801B09179010196A11DB11D809302
:10036000760190937701A0937801B0937901809101
:100370006E0190916F01A0917001B0917101019691
:10038000A11DB11D80936E0190936F01A093700128
:10039000B093710108951F920F920FB60F9211241E
:1003A0008F93809180018F5F809380018F910F9058
:1003B0000FBE0F901F9018951F920F920FB60F92BD
:1003C00011248F939F9380917E0190917F010196DC
:1003D00090937F0180937E019F918F910F900FBE2C
:1003E0000F901F901895809181019091820108953E
:1003F0000E94F4000E9429010E943A010E94090310
:100400000E9455020E94660281E991E00E94560412
:1004100022E030E040E050E064E070E080E090E016
:100420000E94800283B7817F83BF08957894809172
:10043000810190918201892BA1F50E945101892BA4
:1004400059F00E945A010197B9F40E94950180E089
:1004500090E00E94D80210C00E945A01892B89F7AF
:100460000E945300892B69F783B7816083BF889509
:1004700083B78E7F83BFE1CF0E945101019741F482
:100480000E9465010E94110381E090E00E94D80261
:100490000E945300892B59F281E991E00E943A03AE
:1004A000C6CFF89408950895089581E090E0909360
:1004B0009501809394019093860180938501909398
:1004C00097018093960108950C94F600E8E9F1E015
:1004D00080E027E030E041E050E01482158216828F
:1004E0001782338322831086853018F4118210829C
:1004F00002C0518340838F5F39968F3071F7089522
:10050000CF92DF92EF92FF920F931F93E8E9F1E011
:10051000DF0100E010E0ED90FC9011978E159F0533
:10052000A1F41296ED90FC9013976E157F0569F477
:1005300089E0809FF001819FF00D1124E856FE4F65
:10054000248335834683578323C00F5F1F4F19963B
:100550000F30110501F700E010E0A081B1818A178A
:100560009B07C1F4C480D580E680F780CD28CE28D3
:10057000CF2881F489E0809FF001819FF00D112444
:10058000E856FE4F24833583468357837383628303
:10059000108606C00F5F1F4F39960F301105E9F620
:1005A0001F910F91FF90EF90DF90CF9008950895E5
:1005B0000F931F93CF93DF938C01C8E9D1E088811B
:1005C000998180179107D1F48C819D81AE81BF8183
:1005D0000097A105B10591F0288521110FC0019761
:1005E000A109B1098C839D83AE83BF83892B8A2B9C
:1005F0008B2B21F48A819B810E946300299682E0E3
:10060000CF31D807E1F6DF91CF911F910F91089577
:10061000089588E093E00E94A40089E391E00C949F
:10062000BF00089580E090E00895089580E090E094
:10063000089580E090E0089580E090E0089580E0E3
:1006400090E0089580E090E0089580E090E00895C3
:1006500080E090E0089580E090E0089580E090E0F0
:10066000089580E090E0089580E090E0089580E0B3
:1006700090E00895EF92FF920F931F93CF93DF9333
:1006800000D0CDB7DEB77C01CE0101960E94870075
:10069000D70111960D911C911297D801ED91FC9103
:1006A000C7010995009721F08130910549F00FC0ED
:1006B0000E94F60011C0D8018D919C91892B41F7C1
:1006C000F8010681178101151105A9F702C0282F2D
:1006D00002C021E090E0822F0F900F90DF91CF9128
:1006E0001F910F91FF90EF9008958F929F92AF927C
:1006F000BF92CF92DF92EF92FF921F93CF93DF933F
:10070000CDB7DEB72A970FB6F894DEBF0FBECDBFC8
:100710004C017B01DC011196CD90DC901297129672
:100720007C936E931197F6018285DB011A969C915A
:10073000981708F5A12CB12CD6011A969C91F701B7
:1007400082858917B0F4D6011496ED91FC91159726
:10075000309759F0C4010995009739F0823091051E
:1007600009F082C0AA24A394B12CF601C680D780D8
:10077000E3CF10E02CC010E0891798F4F7019285C0
:10078000891778F4FE013196E10FF11DE10FF11D9B
:10079000F182E082D7011696ED90FC9017971F5FCB
:1007A000EDCFA12CB12C13C0309709F5D6011696C8
:1007B000CD90DC901797FE013196E10FF11DE10F0E
:1007C000F11DF182E082F701E680F7801F5FD6011C
:1007D00016962D913C911797F70186819781149673
:1007E000ED91FC91159728173907F1F60BC0C4015C
:1007F00009950097D9F282309105B1F5AA24A39406
:10080000B12CD4CF309751F0C4010995009731F045
:100810008230910549F5AA24A394B12CD7011296F0
:10082000ED91FC911397309751F0C4010995009711
:1008300031F082309105C1F4AA24A394B12C112384
:1008400071F01150FE013196E10FF11DE10FF11D24
:100850000190F081E02D0280F381E02DE4CFAA9495
:10086000AB2821F020E003C0282F02C022E090E056
:10087000822F2A960FB6F894DEBF0FBECDBFDF9150
:10088000CF911F91FF90EF90DF90CF90BF90AF90EE
:100890009F908F900895FC012081263021F46EE214
:1008A00071E00E94750380E090E0089523E231E05A
:1008B000FC013283218308950E94F8010E94F30114
:1008C0008130910549F028F00297C1F70E94540247
:1008D000F5CF0E941602F2CF0E945302EFCF97FB92
:1008E000072E16F4009407D077FD09D00E948304E8
:1008F00007FC05D03EF4909581959F4F0895709523
:1009000061957F4F0895AA1BBB1B51E107C0AA1F29
:10091000BB1FA617B70710F0A61BB70B881F991FA0
:100920005A95A9F780959095BC01CD010895F8944A
:02093000FFCFF7
:100932000100280312032B0300000000002E0331E4
:100942000334030000000000370316031503000000
:100952000000004B0419031C0300000201001F03E6
:1009620022032503000000000068656C6C6F20778D
:080972006F726C64210D0A0094
:00000001FF
