:100000000C9434000C9451000C9451000C94510049
:100010000C9451000C9451000C9451000C9451001C
:100020000C9451000C9451000C9451000C948A01D2
:100030000C9451000C9451000C9479010C945100D3
:100040000C9451000C9451000C9479000C945100C4
:100050000C9451000C94CD000C9451000C94510060
:100060000C9451000C94510011241FBECFEFD8E026
:10007000DEBFCDBF11E0A0E0B1E0EAEFF9E002C0E1
:1000800005900D92A639B107D9F722E0A6E9B1E0B3
:1000900001C01D92A737B207E1F70E94BA040C9481
:1000A000FB040C94000087E08093C4001092C5000C
:1000B000E0ECF0E0808182608083E1ECF0E0808120
:1000C0008861808380818068808308959091C000DA
:1000D00095FFFCCF8093C6000895CF93DF93EC018A
:1000E0008991882319F00E946600FACFDF91CF91A1
:1000F00008951F920F920FB60F9211242F933F93E2
:100100004F935F936F937F938F939F93AF93BF931F
:10011000EF93FF938091C600E091E101F091E2013D
:100120000995FF91EF91BF91AF919F918F917F9131
:100130006F915F914F913F912F910F900FBE0F9054
:100140001F901895259A089595B180E2892785B961
:1001500008950895ECE7F0E08081806480838081D9
:1001600081608083EAE7F0E080818660808380811F
:10017000806280838081886080830895EAE7F0E070
:100180008081806880838081806480830895EAE72D
:10019000F0E080818F77808308951F920F920FB6D1
:1001A0000F9211240F900FBE0F901F90189584B5D9
:1001B000826084BD84B5816084BD85B5846085BD61
:1001C000EEE6F0E08081826080838BE987BD089550
:1001D000E1E8F0E0808188608083808181608083B5
:1001E000808184608083EFE6F0E08081826080839C
:1001F00088E09DE390938900809388000895209182
:10020000A80181E090E0211102C080E090E0089513
:100210002091A6013091A70181E090E0232B11F4F9
:1002200080E090E008958091A801882359F18091A1
:10023000A80181508093A8018091A2019091A3010F
:10024000A091A401B091A5010196A11DB11D8093BB
:10025000A2019093A301A093A401B093A501809162
:100260009A0190919B01A0919C01B0919D010196F2
:10027000A11DB11D80939A0190939B01A0939C01B5
:10028000B0939D0108958091A6019091A701892BBB
:1002900079F18091A6019091A70101979093A70110
:1002A0008093A60180919E0190919F01A091A00151
:1002B000B091A1010196A11DB11D80939E01909363
:1002C0009F01A093A001B093A1018091960190910C
:1002D0009701A0919801B09199010196A11DB11DBE
:1002E0008093960190939701A0939801B093990100
:1002F00008951F920F920FB60F9211248F93809141
:10030000A8018F5F8093A8018F910F900FBE0F906F
:100310001F9018951F920F920FB60F9211248F9372
:100320009F938091A6019091A70101969093A701B8
:100330008093A6019F918F910F900FBE0F901F90F9
:10034000189581E090E09093E4018093E30190930D
:10035000AC018093AB019093E6018093E501089591
:100360000C94A400089582EB91E00C94530008953E
:10037000EAEEF1E080E026E030E041E050E0148277
:10038000158216821782338322831086853018F4F3
:100390001182108202C0518340838F5F39968F3063
:1003A00071F70895CF92DF92EF92FF920F931F9310
:1003B000EAEEF1E0DF0100E010E0ED90FC90119733
:1003C0008E159F05A1F41296ED90FC9013976E1573
:1003D0007F0569F489E0809FF001819FF00D112471
:1003E000E651FE4F248335834683578323C00F5F36
:1003F0001F4F19960F30110501F700E010E0A081A2
:10040000B1818A179B07C1F4C480D580E680F7804C
:10041000CD28CE28CF2881F489E0809FF001819FEC
:10042000F00D1124E651FE4F248335834683578314
:1004300073836283108606C00F5F1F4F39960F309B
:100440001105E9F61F910F91FF90EF90DF90CF908B
:10045000089508950F931F93CF93DF938C01CAEEF5
:10046000D1E08881998180179107D1F48C819D8199
:10047000AE81BF810097A105B10591F028852111BA
:100480000FC00197A109B1098C839D83AE83BF83FF
:10049000892B8A2B8B2B21F48A819B810E946A02F3
:1004A000299682E0C137D807E1F6DF91CF911F91FD
:1004B0000F9108958091B7019091B80140962091D5
:1004C000B5013091B601821B930B60E170E00E9490
:1004D000D30408959C018091B9019091BA010196CD
:1004E00060E170E00E94D3049093BA018093B90157
:1004F0004091B5015091B6018417950771F0E091D4
:10050000B701F091B801EE0FFF1FE554FE4F3183A4
:1005100020839093B8018093B70108950097C1F0AC
:100520002091B5013091B601F901EE0FFF1FE5549E
:10053000FE4F40815181FC0151834083C9010196E6
:1005400060E170E00E94D3049093B6018093B501FE
:1005500080E090E00895FC01808191819383828303
:10056000A481B581B183A083109759F01A96ED91BB
:10057000FC911B97309729F018968D919C911997B3
:1005800009940895FC01892B31F0718360831382F3
:1005900012825583448308958F929F92AF92BF92A7
:1005A000CF92DF92EF92FF920F931F93CF93DF933F
:1005B000009709F4A5C06115710509F4A1C07B017C
:1005C0008C01DC01CD91DC91209729F4B701C801A1
:1005D0000E94AB029BC08E819F81892B01F582E036
:1005E00090E099C0CC80DD80C80CD91CF601208138
:1005F0003181D7018D919C9128173907A9F0BFEF60
:10060000AB1ABB0AEAE08E0E911C8E819F81A81660
:10061000B90640F30990D881C02D209701F3812CB1
:10062000912CA12CB12CF1CFD6010480F581E02DC5
:10063000309741F0B70112968D919C9113970995CF
:100640008823E9F2C114D10429F3F601C085D185CC
:10065000209709F4BBCF8A819B81009711F0EC01B0
:10066000FACFF801A081B181CA17DB0761F01C96AF
:10067000ED91FC911D97309731F0B70118968D914F
:100680009C9119970995D6011696ED91FC911797B3
:10069000309761F048855985D8018D919C91B701BB
:1006A000DC0118968D919C9119970995F80180812C
:1006B0009181C817D90741F0EA85FB85309721F071
:1006C000B701888599850995D8018D919C911197DD
:1006D00013969C938E9312971196DC93CE93C81722
:1006E000D90789F014968D919C911597C817D90751
:1006F00069F08E819F81892B61F080E090E00BC0D2
:100700008EEF9FEF08C081E090E005C08FEF9FEF74
:1007100002C083E090E0DF91CF911F910F91FF9095
:10072000EF90DF90CF90BF90AF909F908F90089503
:10073000009721F0FC0180819181089580E090E094
:100740000895009721F0FC0182819381089580E053
:1007500090E00895009751F0DC01ED91FC9181E06B
:1007600026813781232B19F080E0089581E00895D8
:1007700080E090E0089580E090E0089580E090E0CF
:1007800008950E94A2000E94D7000E94E8000E94E3
:10079000B3010E94A1010E94B8010E94890483E470
:1007A00091E00E946D0021E030E040E050E064E024
:1007B00070E080E090E00E94D20183B7817F83BF28
:1007C0000895CF93DF9300D0CDB7DEB778948091B2
:1007D000DF019091E001892BB1F50E94FF00892B88
:1007E00059F00E9408010197B9F40E94430180E08A
:1007F00090E00E942A0210C00E940801892B89F70C
:100800000E945A02892B69F783B7816083BF88955C
:1008100083B78E7F83BFE1CF0E94FF00019741F431
:100820000E9413010E94B70181E090E00E942A0219
:100830000E945A02892B59F2CE0101960E948E0223
:100840000E949104C4CFF8940F900F90DF91CF9144
:10085000089508950895CF93DF93EC0183E591E027
:100860000E946D00CE010E946D0080E591E0DF9155
:10087000CF910C946D00CF93DF93EC018BE591E069
:100880000E946D00CE010E946D0080E591E0DF9135
:10089000CF910C946D000F931F93CF93DF938C0136
:1008A000EA0182E691E00E946D00C8010E946D009D
:1008B0008BE691E00E946D00CE010E946D0080E504
:1008C00091E0DF91CF911F910F910C946D000F93E8
:1008D0001F93CF93DF938C01FB01C281D38180E70B
:1008E00091E00E946D0089819A810E946D0080E5EF
:1008F00091E00E946D002881022E000C330B81E0F4
:100900000217130709F080E0DF91CF911F910F913B
:10091000089546E151E062E371E081E792E00C94D2
:10092000C202CF93DF93CDB7DEB727970FB6F89407
:10093000DEBF0FBECDBF1A82198280914001909117
:100940004101A09142018D839E83AF83CE01059624
:100950009C838B83BE016F5F7F4F81E792E00E9493
:10096000CC0227960FB6F894DEBF0FBECDBFDF9145
:10097000CF9108950E94C1030E94B8038130910570
:1009800079F028F00297C1F70E942A04F5CF0E945F
:10099000E1030E94BB03892B79F70E94BE03ECCFD1
:1009A0000E942904E9CF97FB072E16F4009407D084
:1009B00077FD09D00E94E70407FC05D03EF490952E
:1009C00081959F4F0895709561957F4F0895AA1B5B
:1009D000BB1B51E107C0AA1FBB1FA617B70710F02A
:1009E000A61BB70B881F991F5A95A9F7809590955C
:0A09F000BC01CD010895F894FFCF7B
:1009FA0001000000300067044B043201000030009F
:100A0A0067044B0424010000000000000000830179
:100A1A002B040000000000000201010089012B04E0
:100A2A003B04000000000C01010091012B043B046F
:100A3A0030780173797374656D2072656164792EFB
:100A4A000D0A00656E7472793A2000657869743A05
:100A5A002000616374696F6E3A2000202D3E2000E9
:100A6A0067756172643A20006576656E74206F6EF0
:100A7A006521004572726F720073657276696365EB
:060A8A00007573657200A7
:00000001FF
